{
  "_format": "hh-sol-artifact-1",
  "contractName": "FHECounter",
  "sourceName": "contracts/FHECounter.sol",
  "abi": [
    {
      "inputs": [
        {
          "internalType": "bytes32",
          "name": "handle",
          "type": "bytes32"
        },
        {
          "internalType": "address",
          "name": "sender",
          "type": "address"
        }
      ],
      "name": "SenderNotAllowedToUseHandle",
      "type": "error"
    },
    {
      "inputs": [],
      "name": "ZamaProtocolUnsupported",
      "type": "error"
    },
    {
      "inputs": [],
      "name": "confidentialProtocolId",
      "outputs": [
        {
          "internalType": "uint256",
          "name": "",
          "type": "uint256"
        }
      ],
      "stateMutability": "view",
      "type": "function"
    },
    {
      "inputs": [
        {
          "internalType": "externalEuint32",
          "name": "inputEuint32",
          "type": "bytes32"
        },
        {
          "internalType": "bytes",
          "name": "inputProof",
          "type": "bytes"
        }
      ],
      "name": "decrement",
      "outputs": [],
      "stateMutability": "nonpayable",
      "type": "function"
    },
    {
      "inputs": [],
      "name": "getCount",
      "outputs": [
        {
          "internalType": "euint32",
          "name": "",
          "type": "bytes32"
        }
      ],
      "stateMutability": "view",
      "type": "function"
    },
    {
      "inputs": [
        {
          "internalType": "externalEuint32",
          "name": "inputEuint32",
          "type": "bytes32"
        },
        {
          "internalType": "bytes",
          "name": "inputProof",
          "type": "bytes"
        }
      ],
      "name": "increment",
      "outputs": [],
      "stateMutability": "nonpayable",
      "type": "function"
    }
  ],
  "bytecode": "0x608060405234801561000f575f5ffd5b506100c461001b6100c9565b80517f9e7b61f58c47dc699ac88507c4f5bb9f121c03808c5676a8078fe583e464970080546001600160a01b03199081166001600160a01b039384161790915560208301517f9e7b61f58c47dc699ac88507c4f5bb9f121c03808c5676a8078fe583e46497018054831691841691909117905560408301517f9e7b61f58c47dc699ac88507c4f5bb9f121c03808c5676a8078fe583e46497028054909216921691909117905550565b610278565b604080516060810182525f808252602082018190529181019190915246600103610162575060408051606080820183525f8083526020808401829052928401528251908101835273ca2e8f1f656cd25c01f05d0b243ab1ecd4a8ffb6815273d82385dada1ae3e969447f20a3164f6213100e75918101919091527377627828a55156b04ac0dc0eb30467f1a552bb039181019190915290565b4662aa36a7036101e1575060408051606080820183525f8083526020808401829052928401528251908101835273f0ffdc93b7e186bc2f8cb3daa75d86d1930a433d81527392c920834ec8941d2c77d188936e1f7a6f49c1279181019190915273be0e383937d564d7ff0bc3b46c51f0bf8d5c311a9181019190915290565b46617a690361025f575060408051606080820183525f808352602080840182905292840152825190810183527350157cffd6bbfa2dece204a89ec419c23ef5755d815273e3a9105a3a932253a70f126eb1e3b589c643dd249181019190915273901f8942346f7ab3a01f6d7613119bca447bb0309181019190915290565b6040516373cac13b60e01b815260040160405180910390fd5b6108b3806102855f395ff3fe608060405234801561000f575f5ffd5b506004361061004a575f3560e01c80635941195d1461004e5780638927b03014610063578063a87d942c1461007d578063e055f8f914610084575b5f5ffd5b61006161005c366004610764565b610097565b005b61006b610104565b60405190815260200160405180910390f35b5f5461006b565b610061610092366004610764565b610112565b5f6100d78484848080601f0160208091040260200160405190810160405280939291908181526020018383808284375f9201919091525061015f92505050565b90506100e45f54826101d2565b5f8190556100f190610200565b506100fd5f5433610220565b5050505050565b5f61010d610243565b905090565b5f6101528484848080601f0160208091040260200160405190810160405280939291908181526020018383808284375f9201919091525061015f92505050565b90506100e45f5482610277565b5f81515f1461017b57610174838360046102a5565b90506101cc565b825f8190036101955761018d5f6103c5565b9150506101cc565b61019f81336103d7565b6101c957604051630276b5d960e01b81526004810182905233602482015260440160405180910390fd5b90505b92915050565b5f826101e4576101e15f6103c5565b92505b816101f5576101f25f6103c5565b91505b6101c983835f610476565b5f816102125761020f5f6103c5565b91505b61021c8230610571565b5090565b5f826102325761022f5f6103c5565b92505b61023c8383610571565b5090919050565b5f466001036102525750600190565b4662aa36a703610263575061271190565b46617a690361027257505f1990565b505f90565b5f82610289576102865f6103c5565b92505b8161029a576102975f6103c5565b91505b6101c983835f6105fa565b7f9e7b61f58c47dc699ac88507c4f5bb9f121c03808c5676a8078fe583e46497015460405163045fc19560e11b81525f917f9e7b61f58c47dc699ac88507c4f5bb9f121c03808c5676a8078fe583e4649700916001600160a01b03909116906308bf832a9061031e9088903390899089906004016107fb565b6020604051808303815f875af115801561033a573d5f5f3e3d5ffd5b505050506040513d601f19601f8201168201806040525081019061035e9190610855565b8154604051630f8e573b60e21b8152600481018390523360248201529193506001600160a01b031690633e395cec906044015f604051808303815f87803b1580156103a7575f5ffd5b505af11580156103b9573d5f5f3e3d5ffd5b50505050509392505050565b5f6101cc8263ffffffff1660046106af565b5f807f9e7b61f58c47dc699ac88507c4f5bb9f121c03808c5676a8078fe583e464970080546040516382027b6d60e01b8152600481018790526001600160a01b0386811660248301529293509116906382027b6d90604401602060405180830381865afa15801561044a573d5f5f3e3d5ffd5b505050506040513d601f19601f8201168201806040525081019061046e919061086c565b949350505050565b5f5f82156104895750600160f81b61048c565b505f5b7f9e7b61f58c47dc699ac88507c4f5bb9f121c03808c5676a8078fe583e46497015460405163022f65e760e31b815260048101879052602481018690527fff00000000000000000000000000000000000000000000000000000000000000831660448201527f9e7b61f58c47dc699ac88507c4f5bb9f121c03808c5676a8078fe583e4649700916001600160a01b03169063117b2f38906064015b6020604051808303815f875af1158015610543573d5f5f3e3d5ffd5b505050506040513d601f19601f820116820180604052508101906105679190610855565b9695505050505050565b5f7f9e7b61f58c47dc699ac88507c4f5bb9f121c03808c5676a8078fe583e46497008054604051635ca4b5b160e11b8152600481018690526001600160a01b03858116602483015292935091169063b9496b62906044015f604051808303815f87803b1580156105df575f5ffd5b505af11580156105f1573d5f5f3e3d5ffd5b50505050505050565b5f5f821561060d5750600160f81b610610565b505f5b7f9e7b61f58c47dc699ac88507c4f5bb9f121c03808c5676a8078fe583e4649701546040516303056db360e31b815260048101879052602481018690527fff00000000000000000000000000000000000000000000000000000000000000831660448201527f9e7b61f58c47dc699ac88507c4f5bb9f121c03808c5676a8078fe583e4649700916001600160a01b03169063182b6d9890606401610527565b7f9e7b61f58c47dc699ac88507c4f5bb9f121c03808c5676a8078fe583e464970154604051639cd07acb60e01b81525f917f9e7b61f58c47dc699ac88507c4f5bb9f121c03808c5676a8078fe583e4649700916001600160a01b0390911690639cd07acb906107249087908790600401610892565b6020604051808303815f875af1158015610740573d5f5f3e3d5ffd5b505050506040513d601f19601f8201168201806040525081019061046e9190610855565b5f5f5f60408486031215610776575f5ffd5b83359250602084013567ffffffffffffffff811115610793575f5ffd5b8401601f810186136107a3575f5ffd5b803567ffffffffffffffff8111156107b9575f5ffd5b8660208284010111156107ca575f5ffd5b939660209190910195509293505050565b605481106107f757634e487b7160e01b5f52602160045260245ffd5b9052565b8481526001600160a01b0384166020820152608060408201525f8351806080840152806020860160a085015e5f60a0828501015260a0601f19601f83011684010191505061084c60608301846107db565b95945050505050565b5f60208284031215610865575f5ffd5b5051919050565b5f6020828403121561087c575f5ffd5b8151801515811461088b575f5ffd5b9392505050565b8281526040810161088b60208301846107db56fea164736f6c634300081b000a",
  "linkReferences": {},
  "deployedLinkReferences": {}
}