{
  "_format": "hh-sol-artifact-1",
  "contractName": "EncryptedVault",
  "sourceName": "contracts/EncryptedVault.sol",
  "abi": [
    {
      "inputs": [
        {
          "internalType": "address",
          "name": "_agentOperator",
          "type": "address"
        }
      ],
      "stateMutability": "nonpayable",
      "type": "constructor"
    },
    {
      "inputs": [
        {
          "internalType": "bytes32",
          "name": "handle",
          "type": "bytes32"
        },
        {
          "internalType": "address",
          "name": "sender",
          "type": "address"
        }
      ],
      "name": "SenderNotAllowedToUseHandle",
      "type": "error"
    },
    {
      "inputs": [],
      "name": "ZamaProtocolUnsupported",
      "type": "error"
    },
    {
      "anonymous": false,
      "inputs": [
        {
          "indexed": true,
          "internalType": "address",
          "name": "oldOperator",
          "type": "address"
        },
        {
          "indexed": true,
          "internalType": "address",
          "name": "newOperator",
          "type": "address"
        }
      ],
      "name": "AgentOperatorUpdated",
      "type": "event"
    },
    {
      "anonymous": false,
      "inputs": [
        {
          "indexed": true,
          "internalType": "address",
          "name": "user",
          "type": "address"
        },
        {
          "indexed": false,
          "internalType": "bytes32",
          "name": "encryptedAmountHandle",
          "type": "bytes32"
        }
      ],
      "name": "Deposit",
      "type": "event"
    },
    {
      "anonymous": false,
      "inputs": [
        {
          "indexed": true,
          "internalType": "address",
          "name": "user",
          "type": "address"
        },
        {
          "indexed": false,
          "internalType": "bytes32",
          "name": "encryptedAmountHandle",
          "type": "bytes32"
        }
      ],
      "name": "Withdrawal",
      "type": "event"
    },
    {
      "inputs": [],
      "name": "agentOperator",
      "outputs": [
        {
          "internalType": "address",
          "name": "",
          "type": "address"
        }
      ],
      "stateMutability": "view",
      "type": "function"
    },
    {
      "inputs": [
        {
          "internalType": "address",
          "name": "user",
          "type": "address"
        }
      ],
      "name": "balanceOf",
      "outputs": [
        {
          "internalType": "euint64",
          "name": "",
          "type": "bytes32"
        }
      ],
      "stateMutability": "view",
      "type": "function"
    },
    {
      "inputs": [],
      "name": "confidentialProtocolId",
      "outputs": [
        {
          "internalType": "uint256",
          "name": "",
          "type": "uint256"
        }
      ],
      "stateMutability": "view",
      "type": "function"
    },
    {
      "inputs": [
        {
          "internalType": "externalEuint64",
          "name": "encryptedAmount",
          "type": "bytes32"
        },
        {
          "internalType": "bytes",
          "name": "inputProof",
          "type": "bytes"
        },
        {
          "internalType": "address",
          "name": "user",
          "type": "address"
        }
      ],
      "name": "deposit",
      "outputs": [],
      "stateMutability": "nonpayable",
      "type": "function"
    },
    {
      "inputs": [
        {
          "internalType": "address",
          "name": "user",
          "type": "address"
        }
      ],
      "name": "getBalanceHandle",
      "outputs": [
        {
          "internalType": "bytes32",
          "name": "",
          "type": "bytes32"
        }
      ],
      "stateMutability": "view",
      "type": "function"
    },
    {
      "inputs": [
        {
          "internalType": "address",
          "name": "user",
          "type": "address"
        }
      ],
      "name": "hasBalance",
      "outputs": [
        {
          "internalType": "bool",
          "name": "",
          "type": "bool"
        }
      ],
      "stateMutability": "view",
      "type": "function"
    },
    {
      "inputs": [
        {
          "internalType": "address",
          "name": "user",
          "type": "address"
        }
      ],
      "name": "makeBalanceDecryptable",
      "outputs": [],
      "stateMutability": "nonpayable",
      "type": "function"
    },
    {
      "inputs": [
        {
          "internalType": "address",
          "name": "newOperator",
          "type": "address"
        }
      ],
      "name": "updateAgentOperator",
      "outputs": [],
      "stateMutability": "nonpayable",
      "type": "function"
    },
    {
      "inputs": [
        {
          "internalType": "externalEuint64",
          "name": "encryptedAmount",
          "type": "bytes32"
        },
        {
          "internalType": "bytes",
          "name": "inputProof",
          "type": "bytes"
        }
      ],
      "name": "withdraw",
      "outputs": [],
      "stateMutability": "nonpayable",
      "type": "function"
    }
  ],
  "bytecode": "0x608060405234801561000f575f5ffd5b5060405161133c38038061133c83398101604081905261002e91610310565b6100e2610039610161565b80517f9e7b61f58c47dc699ac88507c4f5bb9f121c03808c5676a8078fe583e464970080546001600160a01b03199081166001600160a01b039384161790915560208301517f9e7b61f58c47dc699ac88507c4f5bb9f121c03808c5676a8078fe583e46497018054831691841691909117905560408301517f9e7b61f58c47dc699ac88507c4f5bb9f121c03808c5676a8078fe583e46497028054909216921691909117905550565b6001600160a01b03811661013c5760405162461bcd60e51b815260206004820152601860248201527f496e76616c6964206f70657261746f7220616464726573730000000000000000604482015260640160405180910390fd5b600180546001600160a01b0319166001600160a01b039290921691909117905561033d565b604080516060810182525f8082526020820181905291810191909152466001036101fa575060408051606080820183525f8083526020808401829052928401528251908101835273ca2e8f1f656cd25c01f05d0b243ab1ecd4a8ffb6815273d82385dada1ae3e969447f20a3164f6213100e75918101919091527377627828a55156b04ac0dc0eb30467f1a552bb039181019190915290565b4662aa36a703610279575060408051606080820183525f8083526020808401829052928401528251908101835273f0ffdc93b7e186bc2f8cb3daa75d86d1930a433d81527392c920834ec8941d2c77d188936e1f7a6f49c1279181019190915273be0e383937d564d7ff0bc3b46c51f0bf8d5c311a9181019190915290565b46617a69036102f7575060408051606080820183525f808352602080840182905292840152825190810183527350157cffd6bbfa2dece204a89ec419c23ef5755d815273e3a9105a3a932253a70f126eb1e3b589c643dd249181019190915273901f8942346f7ab3a01f6d7613119bca447bb0309181019190915290565b6040516373cac13b60e01b815260040160405180910390fd5b5f60208284031215610320575f5ffd5b81516001600160a01b0381168114610336575f5ffd5b9392505050565b610ff28061034a5f395ff3fe608060405234801561000f575f5ffd5b506004361061009f575f3560e01c80634a2e35ba116100725780638927b030116100585780638927b03014610167578063da93c9df1461016f578063f54a04fd14610182575f5ffd5b80634a2e35ba1461012c57806370a082311461013f575f5ffd5b806308de5e91146100a357806310dfce1b146100d357806314476d9c146100e857806322b2678a14610109575b5f5ffd5b6001546100b6906001600160a01b031681565b6040516001600160a01b0390911681526020015b60405180910390f35b6100e66100e1366004610e4f565b610195565b005b6100fb6100f6366004610ea9565b6102f8565b6040519081526020016100ca565b61011c610117366004610ea9565b610363565b60405190151581526020016100ca565b6100e661013a366004610ec2565b610382565b6100fb61014d366004610ea9565b6001600160a01b03165f9081526020819052604090205490565b6100fb6104eb565b6100e661017d366004610ea9565b6104f9565b6100e6610190366004610ea9565b610612565b6001600160a01b0381166101f05760405162461bcd60e51b815260206004820152601460248201527f496e76616c69642075736572206164647265737300000000000000000000000060448201526064015b60405180910390fd5b5f6102308585858080601f0160208091040260200160405190810160405280939291908181526020018383808284375f920191909152506106e692505050565b6001600160a01b0383165f9081526020819052604081205491925081156102625761025b8284610753565b9050610265565b50815b6001600160a01b0384165f90815260208190526040902081905561028881610781565b5061029381856107a1565b506001546102ab9082906001600160a01b03166107a1565b50836001600160a01b03167f678afb2e81183654e6389bac063af1933c7935f97aceeae5aaa51bc54662cf88886040516102e791815260200190565b60405180910390a250505050505050565b6001600160a01b0381165f908152602081905260408120548061035d5760405162461bcd60e51b815260206004820152601660248201527f4e6f2062616c616e636520696e697469616c697a65640000000000000000000060448201526064016101e7565b92915050565b6001600160a01b0381165f90815260208190526040812054151561035d565b5f3390505f6103c68585858080601f0160208091040260200160405190810160405280939291908181526020018383808284375f920191909152506106e692505050565b6001600160a01b0383165f90815260208190526040902054909150806104215760405162461bcd60e51b815260206004820152601060248201526f139bc818985b185b98d948199bdd5b9960821b60448201526064016101e7565b5f61042c83836107c4565b90505f6104385f6107f2565b90505f610446838684610808565b90505f610453858361084f565b6001600160a01b0388165f908152602081905260409020819055905061047881610781565b5061048381886107a1565b5060015461049b9082906001600160a01b03166107a1565b50866001600160a01b03167f0ce490531f6c8ae2f1ff174643bc8b7ed5e52987ab50dc1e8f33655d2cd8c90b8b6040516104d791815260200190565b60405180910390a250505050505050505050565b5f6104f461087d565b905090565b6001546001600160a01b031633146105535760405162461bcd60e51b815260206004820152601860248201527f4f6e6c79206f70657261746f722063616e20757064617465000000000000000060448201526064016101e7565b6001600160a01b0381166105a95760405162461bcd60e51b815260206004820152601860248201527f496e76616c6964206f70657261746f722061646472657373000000000000000060448201526064016101e7565b600180546001600160a01b038381167fffffffffffffffffffffffff0000000000000000000000000000000000000000831681179093556040519116919082907f80ec9c496df6d100542f75e99363f82a2dc09d972f5c943be7e87be7bb66caee905f90a35050565b336001600160a01b038216148061063357506001546001600160a01b031633145b61067f5760405162461bcd60e51b815260206004820152600e60248201527f4e6f7420617574686f72697a656400000000000000000000000000000000000060448201526064016101e7565b6001600160a01b0381165f90815260208190526040902054806106d75760405162461bcd60e51b815260206004820152601060248201526f139bc818985b185b98d948199bdd5b9960821b60448201526064016101e7565b6106e181836107a1565b505050565b5f81515f14610702576106fb838360056108b1565b905061035d565b825f81900361071c576107145f6107f2565b91505061035d565b61072681336109be565b61074c57604051630276b5d960e01b8152600481018290523360248201526044016101e7565b9392505050565b5f82610765576107625f6107f2565b92505b81610776576107735f6107f2565b91505b61074c83835f610a42565b5f81610793576107905f6107f2565b91505b61079d8230610b12565b5090565b5f826107b3576107b05f6107f2565b92505b6107bd8383610b12565b5090919050565b5f826107d6576107d35f6107f2565b92505b816107e7576107e45f6107f2565b91505b61074c83835f610b88565b5f61035d8267ffffffffffffffff166005610c12565b5f8361081a576108175f610cb4565b93505b8261082b576108285f6107f2565b92505b8161083c576108395f6107f2565b91505b610847848484610ccf565b949350505050565b5f826108615761085e5f6107f2565b92505b816108725761086f5f6107f2565b91505b61074c83835f610d65565b5f4660010361088c5750600190565b4662aa36a70361089d575061271190565b46617a69036108ac57505f1990565b505f90565b7f9e7b61f58c47dc699ac88507c4f5bb9f121c03808c5676a8078fe583e46497015460405163045fc19560e11b81525f915f516020610fc65f395f51905f52916001600160a01b03909116906308bf832a90610917908890339089908990600401610f2a565b6020604051808303815f875af1158015610933573d5f5f3e3d5ffd5b505050506040513d601f19601f820116820180604052508101906109579190610f7b565b8154604051630f8e573b60e21b8152600481018390523360248201529193506001600160a01b031690633e395cec906044015f604051808303815f87803b1580156109a0575f5ffd5b505af11580156109b2573d5f5f3e3d5ffd5b50505050509392505050565b5f805f516020610fc65f395f51905f5280546040516382027b6d60e01b8152600481018790526001600160a01b0386811660248301529293509116906382027b6d90604401602060405180830381865afa158015610a1e573d5f5f3e3d5ffd5b505050506040513d601f19601f820116820180604052508101906108479190610f92565b5f5f8215610a555750600160f81b610a58565b505f5b7f9e7b61f58c47dc699ac88507c4f5bb9f121c03808c5676a8078fe583e46497015460405163022f65e760e31b815260048101879052602481018690526001600160f81b0319831660448201525f516020610fc65f395f51905f52916001600160a01b03169063117b2f38906064015b6020604051808303815f875af1158015610ae4573d5f5f3e3d5ffd5b505050506040513d601f19601f82011682018060405250810190610b089190610f7b565b9695505050505050565b5f5f516020610fc65f395f51905f528054604051635ca4b5b160e11b8152600481018690526001600160a01b03858116602483015292935091169063b9496b62906044015f604051808303815f87803b158015610b6d575f5ffd5b505af1158015610b7f573d5f5f3e3d5ffd5b50505050505050565b5f5f8215610b9b5750600160f81b610b9e565b505f5b7f9e7b61f58c47dc699ac88507c4f5bb9f121c03808c5676a8078fe583e464970154604051631d44e90160e21b815260048101879052602481018690526001600160f81b0319831660448201525f516020610fc65f395f51905f52916001600160a01b031690637513a40490606401610ac8565b7f9e7b61f58c47dc699ac88507c4f5bb9f121c03808c5676a8078fe583e464970154604051639cd07acb60e01b81525f915f516020610fc65f395f51905f52916001600160a01b0390911690639cd07acb90610c749087908790600401610fb1565b6020604051808303815f875af1158015610c90573d5f5f3e3d5ffd5b505050506040513d601f19601f820116820180604052508101906108479190610f7b565b5f61035d82610cc3575f610cc6565b60015b60ff165f610c12565b5f805f516020610fc65f395f51905f526001810154604051637702dcff60e01b81526004810188905260248101879052604481018690529192506001600160a01b031690637702dcff906064016020604051808303815f875af1158015610d38573d5f5f3e3d5ffd5b505050506040513d601f19601f82011682018060405250810190610d5c9190610f7b565b95945050505050565b5f5f8215610d785750600160f81b610d7b565b505f5b7f9e7b61f58c47dc699ac88507c4f5bb9f121c03808c5676a8078fe583e4649701546040516303056db360e31b815260048101879052602481018690526001600160f81b0319831660448201525f516020610fc65f395f51905f52916001600160a01b03169063182b6d9890606401610ac8565b5f5f83601f840112610dff575f5ffd5b50813567ffffffffffffffff811115610e16575f5ffd5b602083019150836020828501011115610e2d575f5ffd5b9250929050565b80356001600160a01b0381168114610e4a575f5ffd5b919050565b5f5f5f5f60608587031215610e62575f5ffd5b84359350602085013567ffffffffffffffff811115610e7f575f5ffd5b610e8b87828801610def565b9094509250610e9e905060408601610e34565b905092959194509250565b5f60208284031215610eb9575f5ffd5b61074c82610e34565b5f5f5f60408486031215610ed4575f5ffd5b83359250602084013567ffffffffffffffff811115610ef1575f5ffd5b610efd86828701610def565b9497909650939450505050565b60548110610f2657634e487b7160e01b5f52602160045260245ffd5b9052565b8481526001600160a01b0384166020820152608060408201525f8351806080840152806020860160a085015e5f60a0828501015260a0601f19601f830116840101915050610d5c6060830184610f0a565b5f60208284031215610f8b575f5ffd5b5051919050565b5f60208284031215610fa2575f5ffd5b8151801515811461074c575f5ffd5b8281526040810161074c6020830184610f0a56fe9e7b61f58c47dc699ac88507c4f5bb9f121c03808c5676a8078fe583e4649700a164736f6c634300081b000a",
  "linkReferences": {},
  "deployedLinkReferences": {}
}