{
  "_format": "hh-sol-artifact-1",
  "contractName": "NapFiUniswapVault",
  "sourceName": "contracts/uniswap/NapFiUniswapVault.sol",
  "abi": [
    {
      "inputs": [
        {
          "internalType": "address",
          "name": "_usdc",
          "type": "address"
        },
        {
          "internalType": "address",
          "name": "_weth",
          "type": "address"
        },
        {
          "internalType": "address",
          "name": "_npm",
          "type": "address"
        },
        {
          "internalType": "address",
          "name": "_swapRouter",
          "type": "address"
        },
        {
          "internalType": "address",
          "name": "_agentOperator",
          "type": "address"
        }
      ],
      "stateMutability": "nonpayable",
      "type": "constructor"
    },
    {
      "inputs": [],
      "name": "ZamaProtocolUnsupported",
      "type": "error"
    },
    {
      "anonymous": false,
      "inputs": [
        {
          "indexed": true,
          "internalType": "address",
          "name": "oldOperator",
          "type": "address"
        },
        {
          "indexed": true,
          "internalType": "address",
          "name": "newOperator",
          "type": "address"
        }
      ],
      "name": "AgentOperatorUpdated",
      "type": "event"
    },
    {
      "anonymous": false,
      "inputs": [
        {
          "indexed": true,
          "internalType": "address",
          "name": "user",
          "type": "address"
        },
        {
          "indexed": false,
          "internalType": "uint256",
          "name": "usdcAmount",
          "type": "uint256"
        }
      ],
      "name": "DepositUSDC",
      "type": "event"
    },
    {
      "anonymous": false,
      "inputs": [
        {
          "indexed": false,
          "internalType": "uint256",
          "name": "tokenId",
          "type": "uint256"
        },
        {
          "indexed": false,
          "internalType": "uint128",
          "name": "liquidity",
          "type": "uint128"
        }
      ],
      "name": "PositionInitialized",
      "type": "event"
    },
    {
      "anonymous": false,
      "inputs": [
        {
          "indexed": true,
          "internalType": "address",
          "name": "user",
          "type": "address"
        },
        {
          "indexed": false,
          "internalType": "uint256",
          "name": "usdcOut",
          "type": "uint256"
        }
      ],
      "name": "SwapFeesClaimed",
      "type": "event"
    },
    {
      "anonymous": false,
      "inputs": [
        {
          "indexed": true,
          "internalType": "address",
          "name": "user",
          "type": "address"
        },
        {
          "indexed": false,
          "internalType": "uint256",
          "name": "sharesBurned",
          "type": "uint256"
        },
        {
          "indexed": false,
          "internalType": "uint256",
          "name": "usdcReturned",
          "type": "uint256"
        }
      ],
      "name": "WithdrawUSDC",
      "type": "event"
    },
    {
      "inputs": [],
      "name": "POOL_FEE",
      "outputs": [
        {
          "internalType": "uint24",
          "name": "",
          "type": "uint24"
        }
      ],
      "stateMutability": "view",
      "type": "function"
    },
    {
      "inputs": [],
      "name": "TICK_LOWER",
      "outputs": [
        {
          "internalType": "int24",
          "name": "",
          "type": "int24"
        }
      ],
      "stateMutability": "view",
      "type": "function"
    },
    {
      "inputs": [],
      "name": "TICK_UPPER",
      "outputs": [
        {
          "internalType": "int24",
          "name": "",
          "type": "int24"
        }
      ],
      "stateMutability": "view",
      "type": "function"
    },
    {
      "inputs": [],
      "name": "agentOperator",
      "outputs": [
        {
          "internalType": "address",
          "name": "",
          "type": "address"
        }
      ],
      "stateMutability": "view",
      "type": "function"
    },
    {
      "inputs": [
        {
          "internalType": "address",
          "name": "user",
          "type": "address"
        }
      ],
      "name": "balanceOf",
      "outputs": [
        {
          "internalType": "euint64",
          "name": "",
          "type": "bytes32"
        }
      ],
      "stateMutability": "view",
      "type": "function"
    },
    {
      "inputs": [],
      "name": "claimSwapFees",
      "outputs": [],
      "stateMutability": "nonpayable",
      "type": "function"
    },
    {
      "inputs": [],
      "name": "confidentialProtocolId",
      "outputs": [
        {
          "internalType": "uint256",
          "name": "",
          "type": "uint256"
        }
      ],
      "stateMutability": "view",
      "type": "function"
    },
    {
      "inputs": [
        {
          "internalType": "uint256",
          "name": "amount",
          "type": "uint256"
        }
      ],
      "name": "depositUSDC",
      "outputs": [],
      "stateMutability": "nonpayable",
      "type": "function"
    },
    {
      "inputs": [
        {
          "internalType": "address",
          "name": "user",
          "type": "address"
        }
      ],
      "name": "getBalanceHandle",
      "outputs": [
        {
          "internalType": "bytes32",
          "name": "",
          "type": "bytes32"
        }
      ],
      "stateMutability": "view",
      "type": "function"
    },
    {
      "inputs": [],
      "name": "getPositionLiquidity",
      "outputs": [
        {
          "internalType": "uint128",
          "name": "",
          "type": "uint128"
        }
      ],
      "stateMutability": "view",
      "type": "function"
    },
    {
      "inputs": [
        {
          "internalType": "address",
          "name": "user",
          "type": "address"
        }
      ],
      "name": "getUsdcBalance",
      "outputs": [
        {
          "internalType": "uint256",
          "name": "",
          "type": "uint256"
        }
      ],
      "stateMutability": "view",
      "type": "function"
    },
    {
      "inputs": [
        {
          "internalType": "address",
          "name": "user",
          "type": "address"
        }
      ],
      "name": "hasBalance",
      "outputs": [
        {
          "internalType": "bool",
          "name": "",
          "type": "bool"
        }
      ],
      "stateMutability": "view",
      "type": "function"
    },
    {
      "inputs": [
        {
          "internalType": "uint256",
          "name": "usdcAmount",
          "type": "uint256"
        },
        {
          "internalType": "uint256",
          "name": "wethAmount",
          "type": "uint256"
        }
      ],
      "name": "initializePosition",
      "outputs": [],
      "stateMutability": "nonpayable",
      "type": "function"
    },
    {
      "inputs": [
        {
          "internalType": "address",
          "name": "user",
          "type": "address"
        }
      ],
      "name": "makeBalanceDecryptable",
      "outputs": [],
      "stateMutability": "nonpayable",
      "type": "function"
    },
    {
      "inputs": [],
      "name": "npm",
      "outputs": [
        {
          "internalType": "contract INonfungiblePositionManager",
          "name": "",
          "type": "address"
        }
      ],
      "stateMutability": "view",
      "type": "function"
    },
    {
      "inputs": [
        {
          "internalType": "address",
          "name": "",
          "type": "address"
        },
        {
          "internalType": "address",
          "name": "",
          "type": "address"
        },
        {
          "internalType": "uint256",
          "name": "",
          "type": "uint256"
        },
        {
          "internalType": "bytes",
          "name": "",
          "type": "bytes"
        }
      ],
      "name": "onERC721Received",
      "outputs": [
        {
          "internalType": "bytes4",
          "name": "",
          "type": "bytes4"
        }
      ],
      "stateMutability": "pure",
      "type": "function"
    },
    {
      "inputs": [],
      "name": "owner",
      "outputs": [
        {
          "internalType": "address",
          "name": "",
          "type": "address"
        }
      ],
      "stateMutability": "view",
      "type": "function"
    },
    {
      "inputs": [],
      "name": "positionTokenId",
      "outputs": [
        {
          "internalType": "uint256",
          "name": "",
          "type": "uint256"
        }
      ],
      "stateMutability": "view",
      "type": "function"
    },
    {
      "inputs": [
        {
          "internalType": "address",
          "name": "",
          "type": "address"
        }
      ],
      "name": "sharesOf",
      "outputs": [
        {
          "internalType": "uint256",
          "name": "",
          "type": "uint256"
        }
      ],
      "stateMutability": "view",
      "type": "function"
    },
    {
      "inputs": [],
      "name": "swapRouter",
      "outputs": [
        {
          "internalType": "contract ISwapRouter",
          "name": "",
          "type": "address"
        }
      ],
      "stateMutability": "view",
      "type": "function"
    },
    {
      "inputs": [],
      "name": "token0",
      "outputs": [
        {
          "internalType": "address",
          "name": "",
          "type": "address"
        }
      ],
      "stateMutability": "view",
      "type": "function"
    },
    {
      "inputs": [],
      "name": "token1",
      "outputs": [
        {
          "internalType": "address",
          "name": "",
          "type": "address"
        }
      ],
      "stateMutability": "view",
      "type": "function"
    },
    {
      "inputs": [],
      "name": "totalShares",
      "outputs": [
        {
          "internalType": "uint256",
          "name": "",
          "type": "uint256"
        }
      ],
      "stateMutability": "view",
      "type": "function"
    },
    {
      "inputs": [
        {
          "internalType": "address",
          "name": "newOperator",
          "type": "address"
        }
      ],
      "name": "updateAgentOperator",
      "outputs": [],
      "stateMutability": "nonpayable",
      "type": "function"
    },
    {
      "inputs": [],
      "name": "usdc",
      "outputs": [
        {
          "internalType": "contract IERC20",
          "name": "",
          "type": "address"
        }
      ],
      "stateMutability": "view",
      "type": "function"
    },
    {
      "inputs": [],
      "name": "usdcIsToken0",
      "outputs": [
        {
          "internalType": "bool",
          "name": "",
          "type": "bool"
        }
      ],
      "stateMutability": "view",
      "type": "function"
    },
    {
      "inputs": [],
      "name": "weth",
      "outputs": [
        {
          "internalType": "contract IERC20",
          "name": "",
          "type": "address"
        }
      ],
      "stateMutability": "view",
      "type": "function"
    },
    {
      "inputs": [
        {
          "internalType": "uint256",
          "name": "shares",
          "type": "uint256"
        }
      ],
      "name": "withdrawUSDC",
      "outputs": [],
      "stateMutability": "nonpayable",
      "type": "function"
    }
  ],
  "bytecode": "0x610160604052348015610010575f5ffd5b50604051612e6a380380612e6a83398101604081905261002f916103d6565b6100e361003a61020c565b80517f9e7b61f58c47dc699ac88507c4f5bb9f121c03808c5676a8078fe583e464970080546001600160a01b03199081166001600160a01b039384161790915560208301517f9e7b61f58c47dc699ac88507c4f5bb9f121c03808c5676a8078fe583e46497018054831691841691909117905560408301517f9e7b61f58c47dc699ac88507c4f5bb9f121c03808c5676a8078fe583e46497028054909216921691909117905550565b6001600160a01b0385161580159061010357506001600160a01b03841615155b801561011757506001600160a01b03831615155b801561012b57506001600160a01b03821615155b801561013f57506001600160a01b03811615155b61017b5760405162461bcd60e51b81526020600482015260096024820152683d32b9379030b2323960b91b604482015260640160405180910390fd5b6001600160a01b03808616608081905285821660a081905285831660c05284831660e052600180549385166001600160a01b031994851617905560058054909316331790925510156101e7576001600160a01b0380861661010052841661012052600161014052610202565b6001600160a01b03808516610100528516610120525f610140525b5050505050610437565b604080516060810182525f8082526020820181905291810191909152466001036102a5575060408051606080820183525f8083526020808401829052928401528251908101835273ca2e8f1f656cd25c01f05d0b243ab1ecd4a8ffb6815273d82385dada1ae3e969447f20a3164f6213100e75918101919091527377627828a55156b04ac0dc0eb30467f1a552bb039181019190915290565b4662aa36a703610324575060408051606080820183525f8083526020808401829052928401528251908101835273f0ffdc93b7e186bc2f8cb3daa75d86d1930a433d81527392c920834ec8941d2c77d188936e1f7a6f49c1279181019190915273be0e383937d564d7ff0bc3b46c51f0bf8d5c311a9181019190915290565b46617a69036103a2575060408051606080820183525f808352602080840182905292840152825190810183527350157cffd6bbfa2dece204a89ec419c23ef5755d815273e3a9105a3a932253a70f126eb1e3b589c643dd249181019190915273be0e383937d564d7ff0bc3b46c51f0bf8d5c311a9181019190915290565b6040516373cac13b60e01b815260040160405180910390fd5b80516001600160a01b03811681146103d1575f5ffd5b919050565b5f5f5f5f5f60a086880312156103ea575f5ffd5b6103f3866103bb565b9450610401602087016103bb565b935061040f604087016103bb565b925061041d606087016103bb565b915061042b608087016103bb565b90509295509295909350565b60805160a05160c05160e0516101005161012051610140516128c36105a75f395f818161044c015281816108d3015281816111030152818161161a0152611ca001525f818161042501528181610954015281816109d40152611d2101525f81816101f401528181610909015281816109af0152611cd601525f81816103e00152818161116101528181611214015281816116780152818161172b01528181611b6f0152611c2401525f818161039e015281816105b50152818161092a0152818161097501528181610a5001528181610dec01528181610f0c01528181610fed0152818161153301528181611cf701528181611d420152611ddb01525f818161031c0152818161085c015281816111400152818161119a01528181611657015281816116b10152611bcd01525f81816102f5015281816107c7015281816111bf015281816112b2015281816116d6015281816117c901528181611abb01528181611b4e0152611ba801526128c35ff3fe608060405234801561000f575f5ffd5b50600436106101bb575f3560e01c80638927b030116100f3578063da93c9df11610093578063e180ab3c1161006e578063e180ab3c146104b1578063f54a04fd146104b9578063f5eb42dc146104cc578063f688bcfb146104eb575f5ffd5b8063da93c9df1461046e578063db81f99b14610481578063dd1b9c4a14610494575f5ffd5b8063cbcc7a81116100ce578063cbcc7a8114610402578063ceefe5d114610417578063d21220a714610420578063d8eb821a14610447575f5ffd5b80638927b030146103c05780638da5cb5b146103c8578063c31c9c07146103db575f5ffd5b80633af569891161015e57806347377d921161013957806347377d921461033e57806369b49adc1461034957806370a08231146103715780637f1e9ef614610399575f5ffd5b80633af56989146102d05780633e413bee146102f05780633fc8cef314610317575f5ffd5b8063150b7a0211610199578063150b7a021461023757806322b2678a14610287578063239f3af7146102aa5780633a98ef39146102c7575f5ffd5b806308de5e91146101bf5780630dfe1681146101ef57806314476d9c14610216575b5f5ffd5b6001546101d2906001600160a01b031681565b6040516001600160a01b0390911681526020015b60405180910390f35b6101d27f000000000000000000000000000000000000000000000000000000000000000081565b61022961022436600461240b565b6104fe565b6040519081526020016101e6565b610256610245366004612426565b630a85bd0160e11b95945050505050565b6040517fffffffff0000000000000000000000000000000000000000000000000000000090911681526020016101e6565b61029a61029536600461240b565b61056e565b60405190151581526020016101e6565b6102b4620d89b481565b60405160029190910b81526020016101e6565b61022960025481565b6102d861058d565b6040516001600160801b0390911681526020016101e6565b6101d27f000000000000000000000000000000000000000000000000000000000000000081565b6101d27f000000000000000000000000000000000000000000000000000000000000000081565b6102b4620d89b31981565b61022961035736600461240b565b6001600160a01b03165f9081526003602052604090205490565b61022961037f36600461240b565b6001600160a01b03165f9081526020819052604090205490565b6101d27f000000000000000000000000000000000000000000000000000000000000000081565b610229610639565b6005546101d2906001600160a01b031681565b6101d27f000000000000000000000000000000000000000000000000000000000000000081565b6104156104103660046124bf565b610647565b005b61022960045481565b6101d27f000000000000000000000000000000000000000000000000000000000000000081565b61029a7f000000000000000000000000000000000000000000000000000000000000000081565b61041561047c36600461240b565b610bbd565b61041561048f3660046124df565b610cd6565b61049d610bb881565b60405162ffffff90911681526020016101e6565b6104156113ad565b6104156104c736600461240b565b6118be565b6102296104da36600461240b565b60036020525f908152604090205481565b6104156104f93660046124df565b61199f565b6001600160a01b0381165f90815260208190526040812054806105685760405162461bcd60e51b815260206004820152601660248201527f4e6f2062616c616e636520696e697469616c697a65640000000000000000000060448201526064015b60405180910390fd5b92915050565b6001600160a01b0381165f908152602081905260408120541515610568565b5f6004545f0361059c57505f90565b6004805460405163133f757160e31b8152918201525f907f00000000000000000000000000000000000000000000000000000000000000006001600160a01b0316906399fbab889060240161018060405180830381865afa158015610603573d5f5f3e3d5ffd5b505050506040513d601f19601f82011682018060405250810190610627919061253f565b50929c9b505050505050505050505050565b5f610642611f28565b905090565b6005546001600160a01b031633146106a15760405162461bcd60e51b815260206004820152600960248201527f6e6f74206f776e65720000000000000000000000000000000000000000000000604482015260640161055f565b600554600160a01b900460ff16156106e85760405162461bcd60e51b815260206004820152600a6024820152697265656e7472616e637960b01b604482015260640161055f565b6005805460ff60a01b1916600160a01b1790556004541561074b5760405162461bcd60e51b815260206004820152600c60248201527f616c726561647920696e69740000000000000000000000000000000000000000604482015260640161055f565b5f8211801561075957505f81115b6107a55760405162461bcd60e51b815260206004820152600760248201527f616d6f756e747300000000000000000000000000000000000000000000000000604482015260640161055f565b6040516323b872dd60e01b8152336004820152306024820152604481018390527f00000000000000000000000000000000000000000000000000000000000000006001600160a01b0316906323b872dd906064016020604051808303815f875af1158015610815573d5f5f3e3d5ffd5b505050506040513d601f19601f820116820180604052508101906108399190612619565b506040516323b872dd60e01b8152336004820152306024820152604481018290527f00000000000000000000000000000000000000000000000000000000000000006001600160a01b0316906323b872dd906064016020604051808303815f875af11580156108aa573d5f5f3e3d5ffd5b505050506040513d601f19601f820116820180604052508101906108ce9190612619565b505f5f7f00000000000000000000000000000000000000000000000000000000000000006108fd578284610900565b83835b9150915061094f7f00000000000000000000000000000000000000000000000000000000000000007f000000000000000000000000000000000000000000000000000000000000000084611f5c565b61099a7f00000000000000000000000000000000000000000000000000000000000000007f000000000000000000000000000000000000000000000000000000000000000083611f5c565b60408051610160810182526001600160a01b037f0000000000000000000000000000000000000000000000000000000000000000811682527f000000000000000000000000000000000000000000000000000000000000000081166020830152610bb882840152620d89b3196060830152620d89b4608083015260a0820185905260c082018490525f60e08301819052610100830181905230610120840152426101408401529251634418b22b60e11b815283927f000000000000000000000000000000000000000000000000000000000000000090921691638831645691610a869190600401612638565b6080604051808303815f875af1158015610aa2573d5f5f3e3d5ffd5b505050506040513d601f19601f82011682018060405250810190610ac691906126fc565b505060048290556002889055335f9081526003602052604081208990559193509150610af187612042565b335f9081526020819052604090208190559050610b0d81612058565b50610b188133612078565b50600154610b309082906001600160a01b0316612078565b50604080518481526001600160801b03841660208201527fc1043a2a3d0daf4e5c60612ac23b9877313fa2f680716eb15f93f2a0084689e6910160405180910390a160405187815233907fe7440f6772025dec9be06ba934e6ee5289b73533ee2136ba668f6cb6ea3f56a89060200160405180910390a250506005805460ff60a01b191690555050505050565b6001546001600160a01b03163314610c175760405162461bcd60e51b815260206004820152600d60248201527f4f6e6c79206f70657261746f7200000000000000000000000000000000000000604482015260640161055f565b6001600160a01b038116610c6d5760405162461bcd60e51b815260206004820152600960248201527f7a65726f20616464720000000000000000000000000000000000000000000000604482015260640161055f565b600180546001600160a01b038381167fffffffffffffffffffffffff0000000000000000000000000000000000000000831681179093556040519116919082907f80ec9c496df6d100542f75e99363f82a2dc09d972f5c943be7e87be7bb66caee905f90a35050565b600554600160a01b900460ff1615610d1d5760405162461bcd60e51b815260206004820152600a6024820152697265656e7472616e637960b01b604482015260640161055f565b6005805460ff60a01b1916600160a01b1790558015801590610d4d5750335f908152600360205260409020548111155b610d995760405162461bcd60e51b815260206004820152600660248201527f7368617265730000000000000000000000000000000000000000000000000000604482015260640161055f565b6004545f03610dd35760405162461bcd60e51b81526020600482015260066024820152656e6f20706f7360d01b604482015260640161055f565b6004805460405163133f757160e31b8152918201525f907f00000000000000000000000000000000000000000000000000000000000000006001600160a01b0316906399fbab889060240161018060405180830381865afa158015610e3a573d5f5f3e3d5ffd5b505050506040513d601f19601f82011682018060405250810190610e5e919061253f565b505050509750505050505050505f60025483836001600160801b0316610e849190612749565b610e8e9190612760565b90506001600160801b03811615610f80576040805160a0810182526004805482526001600160801b03848116602084019081525f8486018181526060860191825242608087019081529651630624e65f60e11b81529551948601949094529051909116602484015290516044830152516064820152905160848201527f00000000000000000000000000000000000000000000000000000000000000006001600160a01b031690630c49ccbe9060a40160408051808303815f875af1158015610f59573d5f5f3e3d5ffd5b505050506040513d601f19601f82011682018060405250810190610f7d919061277f565b50505b6040805160808101825260048054825230602083019081526001600160801b0383850181815260608501828152955163fc6f786560e01b815294519385019390935290516001600160a01b039081166024850152915181166044840152925190921660648201525f9182917f00000000000000000000000000000000000000000000000000000000000000009091169063fc6f78659060840160408051808303815f875af1158015611034573d5f5f3e3d5ffd5b505050506040513d601f19601f82011682018060405250810190611058919061277f565b335f9081526003602052604081208054939550919350879261107b9084906127a1565b925050819055508460025f82825461109391906127a1565b909155505f90506110a386612042565b335f908152602081905260408120549192506110bf828461209b565b335f90815260208190526040902081905590506110db81612058565b506110e68133612078565b506001546110fe9082906001600160a01b0316612078565b505f5f7f000000000000000000000000000000000000000000000000000000000000000061112d578587611130565b86865b90925090508015611296576111867f00000000000000000000000000000000000000000000000000000000000000007f000000000000000000000000000000000000000000000000000000000000000083611f5c565b6040805160e0810182526001600160a01b037f0000000000000000000000000000000000000000000000000000000000000000811682527f000000000000000000000000000000000000000000000000000000000000000081166020830152610bb882840152306060830152608082018490525f60a0830181905260c083015291516304e45aaf60e01b81527f0000000000000000000000000000000000000000000000000000000000000000909216916304e45aaf91611249916004016127b4565b6020604051808303815f875af1158015611265573d5f5f3e3d5ffd5b505050506040513d601f19601f82011682018060405250810190611289919061282a565b6112939083612841565b91505b60405163a9059cbb60e01b8152336004820152602481018390527f00000000000000000000000000000000000000000000000000000000000000006001600160a01b03169063a9059cbb906044016020604051808303815f875af1158015611300573d5f5f3e3d5ffd5b505050506040513d601f19601f820116820180604052508101906113249190612619565b6113595760405162461bcd60e51b815260040161055f906020808252600490820152633c3332b960e11b604082015260600190565b604080518b81526020810184905233917f7246abd78d6d223bbc3c94619f2be502da4ef079ec9cbef79a469ef57a16f941910160405180910390a250506005805460ff60a01b191690555050505050505050565b600554600160a01b900460ff16156113f45760405162461bcd60e51b815260206004820152600a6024820152697265656e7472616e637960b01b604482015260640161055f565b6005805460ff60a01b1916600160a01b1790556004545f036114415760405162461bcd60e51b81526020600482015260066024820152656e6f20706f7360d01b604482015260640161055f565b5f6002541161147e5760405162461bcd60e51b81526020600482015260096024820152686e6f2073686172657360b81b604482015260640161055f565b335f90815260036020526040902054806114c65760405162461bcd60e51b81526020600482015260096024820152686e6f2073686172657360b81b604482015260640161055f565b6040805160808101825260048054825230602083019081526001600160801b0383850181815260608501828152955163fc6f786560e01b815294519385019390935290516001600160a01b039081166024850152915181166044840152925190921660648201525f9182917f00000000000000000000000000000000000000000000000000000000000000009091169063fc6f78659060840160408051808303815f875af115801561157a573d5f5f3e3d5ffd5b505050506040513d601f19601f8201168201806040525081019061159e919061277f565b915091505f600654836115b19190612841565b90505f600754836115c29190612841565b90505f60025486846115d49190612749565b6115de9190612760565b90505f60025487846115f09190612749565b6115fa9190612760565b905061160682856127a1565b60065561161381846127a1565b6007555f807f0000000000000000000000000000000000000000000000000000000000000000611644578284611647565b83835b909250905080156117ad5761169d7f00000000000000000000000000000000000000000000000000000000000000007f000000000000000000000000000000000000000000000000000000000000000083611f5c565b6040805160e0810182526001600160a01b037f0000000000000000000000000000000000000000000000000000000000000000811682527f000000000000000000000000000000000000000000000000000000000000000081166020830152610bb882840152306060830152608082018490525f60a0830181905260c083015291516304e45aaf60e01b81527f0000000000000000000000000000000000000000000000000000000000000000909216916304e45aaf91611760916004016127b4565b6020604051808303815f875af115801561177c573d5f5f3e3d5ffd5b505050506040513d601f19601f820116820180604052508101906117a0919061282a565b6117aa9083612841565b91505b60405163a9059cbb60e01b8152336004820152602481018390527f00000000000000000000000000000000000000000000000000000000000000006001600160a01b03169063a9059cbb906044016020604051808303815f875af1158015611817573d5f5f3e3d5ffd5b505050506040513d601f19601f8201168201806040525081019061183b9190612619565b6118705760405162461bcd60e51b815260040161055f906020808252600490820152633c3332b960e11b604082015260600190565b60405182815233907f8cfd9d2850eec9a3550ba9a44b10d7133d8e8e54dbcbc722e3f16151b3e1a905906020015b60405180910390a250506005805460ff60a01b1916905550505050505050565b336001600160a01b03821614806118df57506001546001600160a01b031633145b61192b5760405162461bcd60e51b815260206004820152600e60248201527f4e6f7420617574686f72697a6564000000000000000000000000000000000000604482015260640161055f565b6001600160a01b0381165f90815260208190526040902054806119905760405162461bcd60e51b815260206004820152601060248201527f4e6f2062616c616e636520666f756e6400000000000000000000000000000000604482015260640161055f565b61199a8183612078565b505050565b600554600160a01b900460ff16156119e65760405162461bcd60e51b815260206004820152600a6024820152697265656e7472616e637960b01b604482015260640161055f565b6005805460ff60a01b1916600160a01b1790556004545f03611a4a5760405162461bcd60e51b815260206004820152600860248201527f6e6f7420696e6974000000000000000000000000000000000000000000000000604482015260640161055f565b5f8111611a995760405162461bcd60e51b815260206004820152600660248201527f616d6f756e740000000000000000000000000000000000000000000000000000604482015260640161055f565b6040516323b872dd60e01b8152336004820152306024820152604481018290527f00000000000000000000000000000000000000000000000000000000000000006001600160a01b0316906323b872dd906064016020604051808303815f875af1158015611b09573d5f5f3e3d5ffd5b505050506040513d601f19601f82011682018060405250810190611b2d9190612619565b505f611b3a600283612760565b90505f611b4782846127a1565b9050611b947f00000000000000000000000000000000000000000000000000000000000000007f000000000000000000000000000000000000000000000000000000000000000084611f5c565b6040805160e0810182526001600160a01b037f0000000000000000000000000000000000000000000000000000000000000000811682527f000000000000000000000000000000000000000000000000000000000000000081166020830152610bb882840152306060830152608082018590525f60a0830181905260c0830181905292516304e45aaf60e01b81527f0000000000000000000000000000000000000000000000000000000000000000909116916304e45aaf91611c5a91906004016127b4565b6020604051808303815f875af1158015611c76573d5f5f3e3d5ffd5b505050506040513d601f19601f82011682018060405250810190611c9a919061282a565b90505f5f7f0000000000000000000000000000000000000000000000000000000000000000611cca578284611ccd565b83835b91509150611d1c7f00000000000000000000000000000000000000000000000000000000000000007f000000000000000000000000000000000000000000000000000000000000000084611f5c565b611d677f00000000000000000000000000000000000000000000000000000000000000007f000000000000000000000000000000000000000000000000000000000000000083611f5c565b6040805160c081018252600480548252602082018581528284018581525f60608501818152608086019182524260a08701908152965163219f5d1760e01b81529551948601949094529151602485015251604484015290516064830152516084820152905160a48201526001600160a01b037f0000000000000000000000000000000000000000000000000000000000000000169063219f5d179060c4016060604051808303815f875af1158015611e21573d5f5f3e3d5ffd5b505050506040513d601f19601f82011682018060405250810190611e459190612854565b5050508560025f828254611e599190612841565b9091555050335f9081526003602052604081208054889290611e7c908490612841565b909155505f9050611e8c87612042565b335f908152602081905260408120549192508115611eb557611eae82846120d0565b9050611eb8565b50815b335f908152602081905260409020819055611ed281612058565b50611edd8133612078565b50600154611ef59082906001600160a01b0316612078565b5060405189815233907fe7440f6772025dec9be06ba934e6ee5289b73533ee2136ba668f6cb6ea3f56a89060200161189e565b5f46600103611f375750600190565b4662aa36a703611f48575061271190565b46617a6903611f5757505f1990565b505f90565b60405163095ea7b360e01b81526001600160a01b0383811660048301525f602483015284169063095ea7b3906044016020604051808303815f875af1158015611fa7573d5f5f3e3d5ffd5b505050506040513d601f19601f82011682018060405250810190611fcb9190612619565b5060405163095ea7b360e01b81526001600160a01b0383811660048301526024820183905284169063095ea7b3906044016020604051808303815f875af1158015612018573d5f5f3e3d5ffd5b505050506040513d601f19601f8201168201806040525081019061203c9190612619565b50505050565b5f6105688267ffffffffffffffff1660056120fe565b5f8161206a576120675f612042565b91505b61207482306121bb565b5090565b5f8261208a576120875f612042565b92505b61209483836121bb565b5090919050565b5f826120ad576120aa5f612042565b92505b816120be576120bb5f612042565b91505b6120c983835f612244565b9392505050565b5f826120e2576120df5f612042565b92505b816120f3576120f05f612042565b91505b6120c983835f61233f565b7f9e7b61f58c47dc699ac88507c4f5bb9f121c03808c5676a8078fe583e464970154604051639cd07acb60e01b81525f917f9e7b61f58c47dc699ac88507c4f5bb9f121c03808c5676a8078fe583e4649700916001600160a01b0390911690639cd07acb906121739087908790600401612886565b6020604051808303815f875af115801561218f573d5f5f3e3d5ffd5b505050506040513d601f19601f820116820180604052508101906121b3919061282a565b949350505050565b5f7f9e7b61f58c47dc699ac88507c4f5bb9f121c03808c5676a8078fe583e46497008054604051635ca4b5b160e11b8152600481018690526001600160a01b03858116602483015292935091169063b9496b62906044015f604051808303815f87803b158015612229575f5ffd5b505af115801561223b573d5f5f3e3d5ffd5b50505050505050565b5f5f82156122575750600160f81b61225a565b505f5b7f9e7b61f58c47dc699ac88507c4f5bb9f121c03808c5676a8078fe583e4649701546040516303056db360e31b815260048101879052602481018690527fff00000000000000000000000000000000000000000000000000000000000000831660448201527f9e7b61f58c47dc699ac88507c4f5bb9f121c03808c5676a8078fe583e4649700916001600160a01b03169063182b6d98906064015b6020604051808303815f875af1158015612311573d5f5f3e3d5ffd5b505050506040513d601f19601f82011682018060405250810190612335919061282a565b9695505050505050565b5f5f82156123525750600160f81b612355565b505f5b7f9e7b61f58c47dc699ac88507c4f5bb9f121c03808c5676a8078fe583e46497015460405163022f65e760e31b815260048101879052602481018690527fff00000000000000000000000000000000000000000000000000000000000000831660448201527f9e7b61f58c47dc699ac88507c4f5bb9f121c03808c5676a8078fe583e4649700916001600160a01b03169063117b2f38906064016122f5565b6001600160a01b0381168114612408575f5ffd5b50565b5f6020828403121561241b575f5ffd5b81356120c9816123f4565b5f5f5f5f5f6080868803121561243a575f5ffd5b8535612445816123f4565b94506020860135612455816123f4565b935060408601359250606086013567ffffffffffffffff811115612477575f5ffd5b8601601f81018813612487575f5ffd5b803567ffffffffffffffff81111561249d575f5ffd5b8860208284010111156124ae575f5ffd5b959894975092955050506020019190565b5f5f604083850312156124d0575f5ffd5b50508035926020909101359150565b5f602082840312156124ef575f5ffd5b5035919050565b8051612501816123f4565b919050565b805162ffffff81168114612501575f5ffd5b8051600281900b8114612501575f5ffd5b80516001600160801b0381168114612501575f5ffd5b5f5f5f5f5f5f5f5f5f5f5f5f6101808d8f03121561255b575f5ffd5b8c516bffffffffffffffffffffffff81168114612576575f5ffd5b9b5061258460208e016124f6565b9a5061259260408e016124f6565b99506125a060608e016124f6565b98506125ae60808e01612506565b97506125bc60a08e01612518565b96506125ca60c08e01612518565b95506125d860e08e01612529565b6101008e01516101208f0151919650945092506125f86101408e01612529565b91506126076101608e01612529565b90509295989b509295989b509295989b565b5f60208284031215612629575f5ffd5b815180151581146120c9575f5ffd5b81516001600160a01b031681526101608101602083015161266460208401826001600160a01b03169052565b50604083015161267b604084018262ffffff169052565b506060830151612690606084018260020b9052565b5060808301516126a5608084018260020b9052565b5060a083015160a083015260c083015160c083015260e083015160e08301526101008301516101008301526101208301516126ec6101208401826001600160a01b03169052565b5061014092830151919092015290565b5f5f5f5f6080858703121561270f575f5ffd5b8451935061271f60208601612529565b6040860151606090960151949790965092505050565b634e487b7160e01b5f52601160045260245ffd5b808202811582820484141761056857610568612735565b5f8261277a57634e487b7160e01b5f52601260045260245ffd5b500490565b5f5f60408385031215612790575f5ffd5b505080516020909101519092909150565b8181038181111561056857610568612735565b5f60e0820190506001600160a01b0383511682526001600160a01b03602084015116602083015262ffffff60408401511660408301526001600160a01b0360608401511660608301526080830151608083015260a083015160a08301526001600160a01b0360c08401511660c083015292915050565b5f6020828403121561283a575f5ffd5b5051919050565b8082018082111561056857610568612735565b5f5f5f60608486031215612866575f5ffd5b61286f84612529565b602085015160409095015190969495509392505050565b82815260408101605483106128a957634e487b7160e01b5f52602160045260245ffd5b826020830152939250505056fea164736f6c634300081b000a",
  "linkReferences": {},
  "deployedLinkReferences": {}
}