{
  "_format": "hh-sol-artifact-1",
  "contractName": "AgentRegistry",
  "sourceName": "contracts/AgentRegistry.sol",
  "abi": [
    {
      "anonymous": false,
      "inputs": [
        {
          "indexed": true,
          "internalType": "address",
          "name": "user",
          "type": "address"
        },
        {
          "indexed": true,
          "internalType": "uint256",
          "name": "agentId",
          "type": "uint256"
        },
        {
          "indexed": false,
          "internalType": "address",
          "name": "vaultAddress",
          "type": "address"
        },
        {
          "indexed": false,
          "internalType": "uint256",
          "name": "timestamp",
          "type": "uint256"
        }
      ],
      "name": "AgentRegistered",
      "type": "event"
    },
    {
      "anonymous": false,
      "inputs": [
        {
          "indexed": true,
          "internalType": "address",
          "name": "user",
          "type": "address"
        },
        {
          "indexed": false,
          "internalType": "uint256",
          "name": "oldAgentId",
          "type": "uint256"
        },
        {
          "indexed": false,
          "internalType": "uint256",
          "name": "newAgentId",
          "type": "uint256"
        },
        {
          "indexed": false,
          "internalType": "address",
          "name": "newVaultAddress",
          "type": "address"
        }
      ],
      "name": "AgentUpdated",
      "type": "event"
    },
    {
      "inputs": [
        {
          "internalType": "address[]",
          "name": "users",
          "type": "address[]"
        }
      ],
      "name": "batchLookup",
      "outputs": [
        {
          "internalType": "uint256[]",
          "name": "agentIds",
          "type": "uint256[]"
        },
        {
          "internalType": "address[]",
          "name": "vaultAddresses",
          "type": "address[]"
        },
        {
          "internalType": "bool[]",
          "name": "registrationStatuses",
          "type": "bool[]"
        }
      ],
      "stateMutability": "view",
      "type": "function"
    },
    {
      "inputs": [
        {
          "internalType": "address",
          "name": "user",
          "type": "address"
        }
      ],
      "name": "getAgentId",
      "outputs": [
        {
          "internalType": "uint256",
          "name": "agentId",
          "type": "uint256"
        }
      ],
      "stateMutability": "view",
      "type": "function"
    },
    {
      "inputs": [
        {
          "internalType": "uint256",
          "name": "agentId",
          "type": "uint256"
        }
      ],
      "name": "getUserByAgent",
      "outputs": [
        {
          "internalType": "address",
          "name": "user",
          "type": "address"
        }
      ],
      "stateMutability": "view",
      "type": "function"
    },
    {
      "inputs": [
        {
          "internalType": "address",
          "name": "user",
          "type": "address"
        }
      ],
      "name": "getVaultAddress",
      "outputs": [
        {
          "internalType": "address",
          "name": "vault",
          "type": "address"
        }
      ],
      "stateMutability": "view",
      "type": "function"
    },
    {
      "inputs": [
        {
          "internalType": "address",
          "name": "user",
          "type": "address"
        }
      ],
      "name": "isRegistered",
      "outputs": [
        {
          "internalType": "bool",
          "name": "",
          "type": "bool"
        }
      ],
      "stateMutability": "view",
      "type": "function"
    },
    {
      "inputs": [
        {
          "internalType": "address",
          "name": "user",
          "type": "address"
        }
      ],
      "name": "lookup",
      "outputs": [
        {
          "internalType": "uint256",
          "name": "agentId",
          "type": "uint256"
        },
        {
          "internalType": "address",
          "name": "vaultAddress",
          "type": "address"
        },
        {
          "internalType": "bool",
          "name": "registrationStatus",
          "type": "bool"
        },
        {
          "internalType": "uint256",
          "name": "registeredAt",
          "type": "uint256"
        }
      ],
      "stateMutability": "view",
      "type": "function"
    },
    {
      "inputs": [
        {
          "internalType": "address",
          "name": "user",
          "type": "address"
        },
        {
          "internalType": "uint256",
          "name": "agentId",
          "type": "uint256"
        },
        {
          "internalType": "address",
          "name": "vault",
          "type": "address"
        }
      ],
      "name": "registerUserAgent",
      "outputs": [],
      "stateMutability": "nonpayable",
      "type": "function"
    }
  ],
  "bytecode": "0x6080604052348015600e575f5ffd5b506109fc8061001c5f395ff3fe608060405234801561000f575f5ffd5b506004361061007a575f3560e01c80635f919c25116100585780635f919c25146100db578063c3c5a5471461011b578063d4b6b5da14610160578063ef88c31e146101f9575f5ffd5b8063042324b61461007e57806310ea8858146100a457806329d55d9f146100c6575b5f5ffd5b61009161008c36600461080e565b61020c565b6040519081526020015b60405180910390f35b6100b76100b236600461082e565b61029d565b60405161009b939291906108db565b6100d96100d4366004610977565b610490565b005b6101036100e93660046109b0565b5f908152600160205260409020546001600160a01b031690565b6040516001600160a01b03909116815260200161009b565b61015061012936600461080e565b6001600160a01b03165f90815260208190526040902060010154600160a01b900460ff1690565b604051901515815260200161009b565b6101cb61016e36600461080e565b6001600160a01b039081165f9081526020818152604091829020825160808101845281548082526001830154958616938201849052600160a01b90950460ff16151593810184905260029091015460609091018190529293909290565b604080519485526001600160a01b03909316602085015290151591830191909152606082015260800161009b565b61010361020736600461080e565b610761565b6001600160a01b0381165f90815260208190526040812060010154600160a01b900460ff166102825760405162461bcd60e51b815260206004820152601360248201527f55736572206e6f7420726567697374657265640000000000000000000000000060448201526064015b60405180910390fd5b506001600160a01b03165f9081526020819052604090205490565b60608080838067ffffffffffffffff8111156102bb576102bb6109c7565b6040519080825280602002602001820160405280156102e4578160200160208202803683370190505b5093508067ffffffffffffffff811115610300576103006109c7565b604051908082528060200260200182016040528015610329578160200160208202803683370190505b5092508067ffffffffffffffff811115610345576103456109c7565b60405190808252806020026020018201604052801561036e578160200160208202803683370190505b5091505f5b81811015610487575f5f5f898985818110610390576103906109db565b90506020020160208101906103a5919061080e565b6001600160a01b03908116825260208083019390935260409182015f2082516080810184528154808252600183015493841695820195909552600160a01b90920460ff1615159282019290925260029091015460608201528751909250879084908110610414576104146109db565b6020026020010181815250508060200151858381518110610437576104376109db565b60200260200101906001600160a01b031690816001600160a01b031681525050806040015184838151811061046e5761046e6109db565b9115156020928302919091019091015250600101610373565b50509250925092565b6001600160a01b0383166104e65760405162461bcd60e51b815260206004820152601460248201527f496e76616c6964207573657220616464726573730000000000000000000000006044820152606401610279565b6001600160a01b03811661053c5760405162461bcd60e51b815260206004820152601560248201527f496e76616c6964207661756c74206164647265737300000000000000000000006044820152606401610279565b5f821161058b5760405162461bcd60e51b815260206004820152601060248201527f496e76616c6964206167656e74204944000000000000000000000000000000006044820152606401610279565b6001600160a01b0383165f9081526020819052604090206001810154600160a01b900460ff161561065b5780545f818152600160208181526040808420805473ffffffffffffffffffffffffffffffffffffffff19908116909155888755928601805484166001600160a01b03898116918217909255898652948290208054909416908a169081179093558051858152918201889052810192909252907f974251bde605b5f525ec1b2e4a741ecf467f46b01db212d8ee8d2989179c586c9060600160405180910390a25061075b565b604080516080810182528481526001600160a01b038085166020808401918252600184860181815242606087018181528c87165f8181528087528a812099518a559651898601805495511515600160a01b027fffffffffffffffffffffff00000000000000000000000000000000000000000090961691909916179390931790965594516002909601959095558883529052839020805473ffffffffffffffffffffffffffffffffffffffff191683179055915185927f3376e7a45cb239a24d4377d97085f128ddca7c950b02bb7738610b8655d00e2c916107529187916001600160a01b03929092168252602082015260400190565b60405180910390a35b50505050565b6001600160a01b0381165f90815260208190526040812060010154600160a01b900460ff166107d25760405162461bcd60e51b815260206004820152601360248201527f55736572206e6f742072656769737465726564000000000000000000000000006044820152606401610279565b506001600160a01b039081165f908152602081905260409020600101541690565b80356001600160a01b0381168114610809575f5ffd5b919050565b5f6020828403121561081e575f5ffd5b610827826107f3565b9392505050565b5f5f6020838503121561083f575f5ffd5b823567ffffffffffffffff811115610855575f5ffd5b8301601f81018513610865575f5ffd5b803567ffffffffffffffff81111561087b575f5ffd5b8560208260051b840101111561088f575f5ffd5b6020919091019590945092505050565b5f8151808452602084019350602083015f5b828110156108d157815115158652602095860195909101906001016108b1565b5093949350505050565b606080825284519082018190525f9060208601906080840190835b818110156109145783518352602093840193909201916001016108f6565b5050838103602080860191909152865180835291810192508601905f5b818110156109585782516001600160a01b0316845260209384019390920191600101610931565b505050828103604084015261096d818561089f565b9695505050505050565b5f5f5f60608486031215610989575f5ffd5b610992846107f3565b9250602084013591506109a7604085016107f3565b90509250925092565b5f602082840312156109c0575f5ffd5b5035919050565b634e487b7160e01b5f52604160045260245ffd5b634e487b7160e01b5f52603260045260245ffdfea164736f6c634300081b000a",
  "linkReferences": {},
  "deployedLinkReferences": {}
}