{
  "address": "0x00708ec2B50d785d6717Ef8192bF89b62aB28348",
  "abi": [
    {
      "inputs": [
        {
          "internalType": "address",
          "name": "_usdc",
          "type": "address"
        },
        {
          "internalType": "address",
          "name": "_weth",
          "type": "address"
        },
        {
          "internalType": "address",
          "name": "_npm",
          "type": "address"
        },
        {
          "internalType": "address",
          "name": "_swapRouter",
          "type": "address"
        },
        {
          "internalType": "address",
          "name": "_agentOperator",
          "type": "address"
        }
      ],
      "stateMutability": "nonpayable",
      "type": "constructor"
    },
    {
      "inputs": [],
      "name": "ZamaProtocolUnsupported",
      "type": "error"
    },
    {
      "anonymous": false,
      "inputs": [
        {
          "indexed": true,
          "internalType": "address",
          "name": "oldOperator",
          "type": "address"
        },
        {
          "indexed": true,
          "internalType": "address",
          "name": "newOperator",
          "type": "address"
        }
      ],
      "name": "AgentOperatorUpdated",
      "type": "event"
    },
    {
      "anonymous": false,
      "inputs": [
        {
          "indexed": true,
          "internalType": "address",
          "name": "user",
          "type": "address"
        },
        {
          "indexed": false,
          "internalType": "uint256",
          "name": "usdcAmount",
          "type": "uint256"
        }
      ],
      "name": "DepositUSDC",
      "type": "event"
    },
    {
      "anonymous": false,
      "inputs": [
        {
          "indexed": false,
          "internalType": "uint256",
          "name": "tokenId",
          "type": "uint256"
        },
        {
          "indexed": false,
          "internalType": "uint128",
          "name": "liquidity",
          "type": "uint128"
        }
      ],
      "name": "PositionInitialized",
      "type": "event"
    },
    {
      "anonymous": false,
      "inputs": [
        {
          "indexed": true,
          "internalType": "address",
          "name": "user",
          "type": "address"
        },
        {
          "indexed": false,
          "internalType": "uint256",
          "name": "sharesBurned",
          "type": "uint256"
        },
        {
          "indexed": false,
          "internalType": "uint256",
          "name": "usdcReturned",
          "type": "uint256"
        }
      ],
      "name": "WithdrawUSDC",
      "type": "event"
    },
    {
      "inputs": [],
      "name": "POOL_FEE",
      "outputs": [
        {
          "internalType": "uint24",
          "name": "",
          "type": "uint24"
        }
      ],
      "stateMutability": "view",
      "type": "function"
    },
    {
      "inputs": [],
      "name": "TICK_LOWER",
      "outputs": [
        {
          "internalType": "int24",
          "name": "",
          "type": "int24"
        }
      ],
      "stateMutability": "view",
      "type": "function"
    },
    {
      "inputs": [],
      "name": "TICK_UPPER",
      "outputs": [
        {
          "internalType": "int24",
          "name": "",
          "type": "int24"
        }
      ],
      "stateMutability": "view",
      "type": "function"
    },
    {
      "inputs": [],
      "name": "agentOperator",
      "outputs": [
        {
          "internalType": "address",
          "name": "",
          "type": "address"
        }
      ],
      "stateMutability": "view",
      "type": "function"
    },
    {
      "inputs": [
        {
          "internalType": "address",
          "name": "user",
          "type": "address"
        }
      ],
      "name": "balanceOf",
      "outputs": [
        {
          "internalType": "euint64",
          "name": "",
          "type": "bytes32"
        }
      ],
      "stateMutability": "view",
      "type": "function"
    },
    {
      "inputs": [],
      "name": "confidentialProtocolId",
      "outputs": [
        {
          "internalType": "uint256",
          "name": "",
          "type": "uint256"
        }
      ],
      "stateMutability": "view",
      "type": "function"
    },
    {
      "inputs": [
        {
          "internalType": "uint256",
          "name": "amount",
          "type": "uint256"
        }
      ],
      "name": "depositUSDC",
      "outputs": [],
      "stateMutability": "nonpayable",
      "type": "function"
    },
    {
      "inputs": [
        {
          "internalType": "address",
          "name": "user",
          "type": "address"
        }
      ],
      "name": "getBalanceHandle",
      "outputs": [
        {
          "internalType": "bytes32",
          "name": "",
          "type": "bytes32"
        }
      ],
      "stateMutability": "view",
      "type": "function"
    },
    {
      "inputs": [],
      "name": "getPositionLiquidity",
      "outputs": [
        {
          "internalType": "uint128",
          "name": "",
          "type": "uint128"
        }
      ],
      "stateMutability": "view",
      "type": "function"
    },
    {
      "inputs": [
        {
          "internalType": "address",
          "name": "user",
          "type": "address"
        }
      ],
      "name": "getUsdcBalance",
      "outputs": [
        {
          "internalType": "uint256",
          "name": "",
          "type": "uint256"
        }
      ],
      "stateMutability": "view",
      "type": "function"
    },
    {
      "inputs": [
        {
          "internalType": "address",
          "name": "user",
          "type": "address"
        }
      ],
      "name": "hasBalance",
      "outputs": [
        {
          "internalType": "bool",
          "name": "",
          "type": "bool"
        }
      ],
      "stateMutability": "view",
      "type": "function"
    },
    {
      "inputs": [
        {
          "internalType": "uint256",
          "name": "usdcAmount",
          "type": "uint256"
        },
        {
          "internalType": "uint256",
          "name": "wethAmount",
          "type": "uint256"
        }
      ],
      "name": "initializePosition",
      "outputs": [],
      "stateMutability": "nonpayable",
      "type": "function"
    },
    {
      "inputs": [
        {
          "internalType": "address",
          "name": "user",
          "type": "address"
        }
      ],
      "name": "makeBalanceDecryptable",
      "outputs": [],
      "stateMutability": "nonpayable",
      "type": "function"
    },
    {
      "inputs": [],
      "name": "npm",
      "outputs": [
        {
          "internalType": "contract INonfungiblePositionManager",
          "name": "",
          "type": "address"
        }
      ],
      "stateMutability": "view",
      "type": "function"
    },
    {
      "inputs": [
        {
          "internalType": "address",
          "name": "",
          "type": "address"
        },
        {
          "internalType": "address",
          "name": "",
          "type": "address"
        },
        {
          "internalType": "uint256",
          "name": "",
          "type": "uint256"
        },
        {
          "internalType": "bytes",
          "name": "",
          "type": "bytes"
        }
      ],
      "name": "onERC721Received",
      "outputs": [
        {
          "internalType": "bytes4",
          "name": "",
          "type": "bytes4"
        }
      ],
      "stateMutability": "pure",
      "type": "function"
    },
    {
      "inputs": [],
      "name": "owner",
      "outputs": [
        {
          "internalType": "address",
          "name": "",
          "type": "address"
        }
      ],
      "stateMutability": "view",
      "type": "function"
    },
    {
      "inputs": [],
      "name": "positionTokenId",
      "outputs": [
        {
          "internalType": "uint256",
          "name": "",
          "type": "uint256"
        }
      ],
      "stateMutability": "view",
      "type": "function"
    },
    {
      "inputs": [
        {
          "internalType": "address",
          "name": "",
          "type": "address"
        }
      ],
      "name": "sharesOf",
      "outputs": [
        {
          "internalType": "uint256",
          "name": "",
          "type": "uint256"
        }
      ],
      "stateMutability": "view",
      "type": "function"
    },
    {
      "inputs": [],
      "name": "swapRouter",
      "outputs": [
        {
          "internalType": "contract ISwapRouter",
          "name": "",
          "type": "address"
        }
      ],
      "stateMutability": "view",
      "type": "function"
    },
    {
      "inputs": [],
      "name": "token0",
      "outputs": [
        {
          "internalType": "address",
          "name": "",
          "type": "address"
        }
      ],
      "stateMutability": "view",
      "type": "function"
    },
    {
      "inputs": [],
      "name": "token1",
      "outputs": [
        {
          "internalType": "address",
          "name": "",
          "type": "address"
        }
      ],
      "stateMutability": "view",
      "type": "function"
    },
    {
      "inputs": [],
      "name": "totalShares",
      "outputs": [
        {
          "internalType": "uint256",
          "name": "",
          "type": "uint256"
        }
      ],
      "stateMutability": "view",
      "type": "function"
    },
    {
      "inputs": [
        {
          "internalType": "address",
          "name": "newOperator",
          "type": "address"
        }
      ],
      "name": "updateAgentOperator",
      "outputs": [],
      "stateMutability": "nonpayable",
      "type": "function"
    },
    {
      "inputs": [],
      "name": "usdc",
      "outputs": [
        {
          "internalType": "contract IERC20",
          "name": "",
          "type": "address"
        }
      ],
      "stateMutability": "view",
      "type": "function"
    },
    {
      "inputs": [],
      "name": "usdcIsToken0",
      "outputs": [
        {
          "internalType": "bool",
          "name": "",
          "type": "bool"
        }
      ],
      "stateMutability": "view",
      "type": "function"
    },
    {
      "inputs": [],
      "name": "weth",
      "outputs": [
        {
          "internalType": "contract IERC20",
          "name": "",
          "type": "address"
        }
      ],
      "stateMutability": "view",
      "type": "function"
    },
    {
      "inputs": [
        {
          "internalType": "uint256",
          "name": "shares",
          "type": "uint256"
        }
      ],
      "name": "withdrawUSDC",
      "outputs": [],
      "stateMutability": "nonpayable",
      "type": "function"
    }
  ],
  "transactionHash": "0x04793079a54a10c42feebe0c75bcffa96d7a8bb18e23a3520d6a5a5260c838ee",
  "args": [
    "0x1c7D4B196Cb0C7B01d743Fbc6116a902379C7238",
    "0xfFf9976782d46CC05630D1f6eBAb18b2324d6B14",
    "0x1238536071E1c677A632429e3655c799b22cDA52",
    "0x3bFA4769FB09eefC5a80d6E87c3B9C650f7Ae48E",
    "0x588F6b3169F60176c1143f8BaB47bCf3DeEbECdc"
  ],
  "numDeployments": 1,
  "solcInputHash": "f35daa4b54ea2e17c3d042bfab5440be",
  "bytecode": "0x610160604052348015610010575f5ffd5b5060405161293c38038061293c83398101604081905261002f916103d6565b6100e361003a61020c565b80517f9e7b61f58c47dc699ac88507c4f5bb9f121c03808c5676a8078fe583e464970080546001600160a01b03199081166001600160a01b039384161790915560208301517f9e7b61f58c47dc699ac88507c4f5bb9f121c03808c5676a8078fe583e46497018054831691841691909117905560408301517f9e7b61f58c47dc699ac88507c4f5bb9f121c03808c5676a8078fe583e46497028054909216921691909117905550565b6001600160a01b0385161580159061010357506001600160a01b03841615155b801561011757506001600160a01b03831615155b801561012b57506001600160a01b03821615155b801561013f57506001600160a01b03811615155b61017b5760405162461bcd60e51b81526020600482015260096024820152683d32b9379030b2323960b91b604482015260640160405180910390fd5b6001600160a01b03808616608081905285821660a081905285831660c05284831660e052600180549385166001600160a01b031994851617905560058054909316331790925510156101e7576001600160a01b0380861661010052841661012052600161014052610202565b6001600160a01b03808516610100528516610120525f610140525b5050505050610437565b604080516060810182525f8082526020820181905291810191909152466001036102a5575060408051606080820183525f8083526020808401829052928401528251908101835273ca2e8f1f656cd25c01f05d0b243ab1ecd4a8ffb6815273d82385dada1ae3e969447f20a3164f6213100e75918101919091527377627828a55156b04ac0dc0eb30467f1a552bb039181019190915290565b4662aa36a703610324575060408051606080820183525f8083526020808401829052928401528251908101835273f0ffdc93b7e186bc2f8cb3daa75d86d1930a433d81527392c920834ec8941d2c77d188936e1f7a6f49c1279181019190915273be0e383937d564d7ff0bc3b46c51f0bf8d5c311a9181019190915290565b46617a69036103a2575060408051606080820183525f808352602080840182905292840152825190810183527350157cffd6bbfa2dece204a89ec419c23ef5755d815273e3a9105a3a932253a70f126eb1e3b589c643dd249181019190915273901f8942346f7ab3a01f6d7613119bca447bb0309181019190915290565b6040516373cac13b60e01b815260040160405180910390fd5b80516001600160a01b03811681146103d1575f5ffd5b919050565b5f5f5f5f5f60a086880312156103ea575f5ffd5b6103f3866103bb565b9450610401602087016103bb565b935061040f604087016103bb565b925061041d606087016103bb565b915061042b608087016103bb565b90509295509295909350565b60805160a05160c05160e0516101005161012051610140516123cd61056f5f395f8181610441015281816108c001528181611107015261180501525f818161041a01528181610941015281816109c1015261188601525f81816101e9015281816108f60152818161099c015261183b01525f81816103d5015281816111650152818161125c0152818161169d015261179501525f8181610393015281816105a2015281816109170152818161096201528181610a3d01528181610df001528181610f1001528181610ff10152818161185c015281816118a7015261194001525f818161031101528181610849015281816111440152818161119e01526116fb01525f81816102ea015281816107b4015281816111c3015281816112f1015281816115e90152818161167c01526116d601526123cd5ff3fe608060405234801561000f575f5ffd5b50600436106101b0575f3560e01c80637f1e9ef6116100f3578063d8eb821a11610093578063dd1b9c4a1161006e578063dd1b9c4a14610489578063f54a04fd146104a6578063f5eb42dc146104b9578063f688bcfb146104d8575f5ffd5b8063d8eb821a1461043c578063da93c9df14610463578063db81f99b14610476575f5ffd5b8063c31c9c07116100ce578063c31c9c07146103d0578063cbcc7a81146103f7578063ceefe5d11461040c578063d21220a714610415575f5ffd5b80637f1e9ef61461038e5780638927b030146103b55780638da5cb5b146103bd575f5ffd5b80633a98ef391161015e5780633fc8cef3116101395780633fc8cef31461030c57806347377d921461033357806369b49adc1461033e57806370a0823114610366575f5ffd5b80633a98ef39146102bc5780633af56989146102c55780633e413bee146102e5575f5ffd5b8063150b7a021161018e578063150b7a021461022c57806322b2678a1461027c578063239f3af71461029f575f5ffd5b806308de5e91146101b45780630dfe1681146101e457806314476d9c1461020b575b5f5ffd5b6001546101c7906001600160a01b031681565b6040516001600160a01b0390911681526020015b60405180910390f35b6101c77f000000000000000000000000000000000000000000000000000000000000000081565b61021e610219366004611f8b565b6104eb565b6040519081526020016101db565b61024b61023a366004611fa6565b630a85bd0160e11b95945050505050565b6040517fffffffff0000000000000000000000000000000000000000000000000000000090911681526020016101db565b61028f61028a366004611f8b565b61055b565b60405190151581526020016101db565b6102a9620d89b481565b60405160029190910b81526020016101db565b61021e60025481565b6102cd61057a565b6040516001600160801b0390911681526020016101db565b6101c77f000000000000000000000000000000000000000000000000000000000000000081565b6101c77f000000000000000000000000000000000000000000000000000000000000000081565b6102a9620d89b31981565b61021e61034c366004611f8b565b6001600160a01b03165f9081526003602052604090205490565b61021e610374366004611f8b565b6001600160a01b03165f9081526020819052604090205490565b6101c77f000000000000000000000000000000000000000000000000000000000000000081565b61021e610626565b6005546101c7906001600160a01b031681565b6101c77f000000000000000000000000000000000000000000000000000000000000000081565b61040a61040536600461203f565b610634565b005b61021e60045481565b6101c77f000000000000000000000000000000000000000000000000000000000000000081565b61028f7f000000000000000000000000000000000000000000000000000000000000000081565b61040a610471366004611f8b565b610baa565b61040a61048436600461205f565b610cc3565b610492610bb881565b60405162ffffff90911681526020016101db565b61040a6104b4366004611f8b565b6113ec565b61021e6104c7366004611f8b565b60036020525f908152604090205481565b61040a6104e636600461205f565b6114cd565b6001600160a01b0381165f90815260208190526040812054806105555760405162461bcd60e51b815260206004820152601660248201527f4e6f2062616c616e636520696e697469616c697a65640000000000000000000060448201526064015b60405180910390fd5b92915050565b6001600160a01b0381165f908152602081905260408120541515610555565b5f6004545f0361058957505f90565b6004805460405163133f757160e31b8152918201525f907f00000000000000000000000000000000000000000000000000000000000000006001600160a01b0316906399fbab889060240161018060405180830381865afa1580156105f0573d5f5f3e3d5ffd5b505050506040513d601f19601f8201168201806040525081019061061491906120bf565b50929c9b505050505050505050505050565b5f61062f611aa8565b905090565b6005546001600160a01b0316331461068e5760405162461bcd60e51b815260206004820152600960248201527f6e6f74206f776e65720000000000000000000000000000000000000000000000604482015260640161054c565b600554600160a01b900460ff16156106d55760405162461bcd60e51b815260206004820152600a6024820152697265656e7472616e637960b01b604482015260640161054c565b6005805460ff60a01b1916600160a01b179055600454156107385760405162461bcd60e51b815260206004820152600c60248201527f616c726561647920696e69740000000000000000000000000000000000000000604482015260640161054c565b5f8211801561074657505f81115b6107925760405162461bcd60e51b815260206004820152600760248201527f616d6f756e747300000000000000000000000000000000000000000000000000604482015260640161054c565b6040516323b872dd60e01b8152336004820152306024820152604481018390527f00000000000000000000000000000000000000000000000000000000000000006001600160a01b0316906323b872dd906064016020604051808303815f875af1158015610802573d5f5f3e3d5ffd5b505050506040513d601f19601f820116820180604052508101906108269190612199565b506040516323b872dd60e01b8152336004820152306024820152604481018290527f00000000000000000000000000000000000000000000000000000000000000006001600160a01b0316906323b872dd906064016020604051808303815f875af1158015610897573d5f5f3e3d5ffd5b505050506040513d601f19601f820116820180604052508101906108bb9190612199565b505f5f7f00000000000000000000000000000000000000000000000000000000000000006108ea5782846108ed565b83835b9150915061093c7f00000000000000000000000000000000000000000000000000000000000000007f000000000000000000000000000000000000000000000000000000000000000084611adc565b6109877f00000000000000000000000000000000000000000000000000000000000000007f000000000000000000000000000000000000000000000000000000000000000083611adc565b60408051610160810182526001600160a01b037f0000000000000000000000000000000000000000000000000000000000000000811682527f000000000000000000000000000000000000000000000000000000000000000081166020830152610bb882840152620d89b3196060830152620d89b4608083015260a0820185905260c082018490525f60e08301819052610100830181905230610120840152426101408401529251634418b22b60e11b815283927f000000000000000000000000000000000000000000000000000000000000000090921691638831645691610a7391906004016121b8565b6080604051808303815f875af1158015610a8f573d5f5f3e3d5ffd5b505050506040513d601f19601f82011682018060405250810190610ab3919061227c565b505060048290556002889055335f9081526003602052604081208990559193509150610ade87611bc2565b335f9081526020819052604090208190559050610afa81611bd8565b50610b058133611bf8565b50600154610b1d9082906001600160a01b0316611bf8565b50604080518481526001600160801b03841660208201527fc1043a2a3d0daf4e5c60612ac23b9877313fa2f680716eb15f93f2a0084689e6910160405180910390a160405187815233907fe7440f6772025dec9be06ba934e6ee5289b73533ee2136ba668f6cb6ea3f56a89060200160405180910390a250506005805460ff60a01b191690555050505050565b6001546001600160a01b03163314610c045760405162461bcd60e51b815260206004820152600d60248201527f4f6e6c79206f70657261746f7200000000000000000000000000000000000000604482015260640161054c565b6001600160a01b038116610c5a5760405162461bcd60e51b815260206004820152600960248201527f7a65726f20616464720000000000000000000000000000000000000000000000604482015260640161054c565b600180546001600160a01b038381167fffffffffffffffffffffffff0000000000000000000000000000000000000000831681179093556040519116919082907f80ec9c496df6d100542f75e99363f82a2dc09d972f5c943be7e87be7bb66caee905f90a35050565b600554600160a01b900460ff1615610d0a5760405162461bcd60e51b815260206004820152600a6024820152697265656e7472616e637960b01b604482015260640161054c565b6005805460ff60a01b1916600160a01b1790558015801590610d3a5750335f908152600360205260409020548111155b610d865760405162461bcd60e51b815260206004820152600660248201527f7368617265730000000000000000000000000000000000000000000000000000604482015260640161054c565b6004545f03610dd75760405162461bcd60e51b815260206004820152600660248201527f6e6f20706f730000000000000000000000000000000000000000000000000000604482015260640161054c565b6004805460405163133f757160e31b8152918201525f907f00000000000000000000000000000000000000000000000000000000000000006001600160a01b0316906399fbab889060240161018060405180830381865afa158015610e3e573d5f5f3e3d5ffd5b505050506040513d601f19601f82011682018060405250810190610e6291906120bf565b505050509750505050505050505f60025483836001600160801b0316610e8891906122c9565b610e9291906122e0565b90506001600160801b03811615610f84576040805160a0810182526004805482526001600160801b03848116602084019081525f8486018181526060860191825242608087019081529651630624e65f60e11b81529551948601949094529051909116602484015290516044830152516064820152905160848201527f00000000000000000000000000000000000000000000000000000000000000006001600160a01b031690630c49ccbe9060a40160408051808303815f875af1158015610f5d573d5f5f3e3d5ffd5b505050506040513d601f19601f82011682018060405250810190610f8191906122ff565b50505b6040805160808101825260048054825230602083019081526001600160801b0383850181815260608501828152955163fc6f786560e01b815294519385019390935290516001600160a01b039081166024850152915181166044840152925190921660648201525f9182917f00000000000000000000000000000000000000000000000000000000000000009091169063fc6f78659060840160408051808303815f875af1158015611038573d5f5f3e3d5ffd5b505050506040513d601f19601f8201168201806040525081019061105c91906122ff565b335f9081526003602052604081208054939550919350879261107f908490612321565b925050819055508460025f8282546110979190612321565b909155505f90506110a786611bc2565b335f908152602081905260408120549192506110c38284611c1b565b335f90815260208190526040902081905590506110df81611bd8565b506110ea8133611bf8565b506001546111029082906001600160a01b0316611bf8565b505f5f7f0000000000000000000000000000000000000000000000000000000000000000611131578587611134565b86865b909250905080156112d55761118a7f00000000000000000000000000000000000000000000000000000000000000007f000000000000000000000000000000000000000000000000000000000000000083611adc565b6040805160e0810182526001600160a01b037f0000000000000000000000000000000000000000000000000000000000000000811682527f0000000000000000000000000000000000000000000000000000000000000000811660208301908152610bb88385019081523060608501908152608085018781525f60a0870181815260c0880191825297516304e45aaf60e01b8152965186166004880152935185166024870152915162ffffff1660448601525183166064850152516084840152925160a48301529151821660c48201527f0000000000000000000000000000000000000000000000000000000000000000909116906304e45aaf9060e4016020604051808303815f875af11580156112a4573d5f5f3e3d5ffd5b505050506040513d601f19601f820116820180604052508101906112c89190612334565b6112d2908361234b565b91505b60405163a9059cbb60e01b8152336004820152602481018390527f00000000000000000000000000000000000000000000000000000000000000006001600160a01b03169063a9059cbb906044016020604051808303815f875af115801561133f573d5f5f3e3d5ffd5b505050506040513d601f19601f820116820180604052508101906113639190612199565b6113985760405162461bcd60e51b815260040161054c906020808252600490820152633c3332b960e11b604082015260600190565b604080518b81526020810184905233917f7246abd78d6d223bbc3c94619f2be502da4ef079ec9cbef79a469ef57a16f941910160405180910390a250506005805460ff60a01b191690555050505050505050565b336001600160a01b038216148061140d57506001546001600160a01b031633145b6114595760405162461bcd60e51b815260206004820152600e60248201527f4e6f7420617574686f72697a6564000000000000000000000000000000000000604482015260640161054c565b6001600160a01b0381165f90815260208190526040902054806114be5760405162461bcd60e51b815260206004820152601060248201527f4e6f2062616c616e636520666f756e6400000000000000000000000000000000604482015260640161054c565b6114c88183611bf8565b505050565b600554600160a01b900460ff16156115145760405162461bcd60e51b815260206004820152600a6024820152697265656e7472616e637960b01b604482015260640161054c565b6005805460ff60a01b1916600160a01b1790556004545f036115785760405162461bcd60e51b815260206004820152600860248201527f6e6f7420696e6974000000000000000000000000000000000000000000000000604482015260640161054c565b5f81116115c75760405162461bcd60e51b815260206004820152600660248201527f616d6f756e740000000000000000000000000000000000000000000000000000604482015260640161054c565b6040516323b872dd60e01b8152336004820152306024820152604481018290527f00000000000000000000000000000000000000000000000000000000000000006001600160a01b0316906323b872dd906064016020604051808303815f875af1158015611637573d5f5f3e3d5ffd5b505050506040513d601f19601f8201168201806040525081019061165b9190612199565b505f6116686002836122e0565b90505f6116758284612321565b90506116c27f00000000000000000000000000000000000000000000000000000000000000007f000000000000000000000000000000000000000000000000000000000000000084611adc565b6040805160e0810182526001600160a01b037f0000000000000000000000000000000000000000000000000000000000000000811682527f0000000000000000000000000000000000000000000000000000000000000000811660208301908152610bb88385019081523060608501908152608085018881525f60a0870181815260c0880182815298516304e45aaf60e01b8152975187166004890152945186166024880152925162ffffff166044870152905184166064860152516084850152905160a48401529251811660c48301527f000000000000000000000000000000000000000000000000000000000000000016906304e45aaf9060e4016020604051808303815f875af11580156117db573d5f5f3e3d5ffd5b505050506040513d601f19601f820116820180604052508101906117ff9190612334565b90505f5f7f000000000000000000000000000000000000000000000000000000000000000061182f578284611832565b83835b915091506118817f00000000000000000000000000000000000000000000000000000000000000007f000000000000000000000000000000000000000000000000000000000000000084611adc565b6118cc7f00000000000000000000000000000000000000000000000000000000000000007f000000000000000000000000000000000000000000000000000000000000000083611adc565b6040805160c081018252600480548252602082018581528284018581525f60608501818152608086019182524260a08701908152965163219f5d1760e01b81529551948601949094529151602485015251604484015290516064830152516084820152905160a48201526001600160a01b037f0000000000000000000000000000000000000000000000000000000000000000169063219f5d179060c4016060604051808303815f875af1158015611986573d5f5f3e3d5ffd5b505050506040513d601f19601f820116820180604052508101906119aa919061235e565b5050508560025f8282546119be919061234b565b9091555050335f90815260036020526040812080548892906119e190849061234b565b909155505f90506119f187611bc2565b335f908152602081905260408120549192508115611a1a57611a138284611c50565b9050611a1d565b50815b335f908152602081905260409020819055611a3781611bd8565b50611a428133611bf8565b50600154611a5a9082906001600160a01b0316611bf8565b5060405189815233907fe7440f6772025dec9be06ba934e6ee5289b73533ee2136ba668f6cb6ea3f56a89060200160405180910390a250506005805460ff60a01b1916905550505050505050565b5f46600103611ab75750600190565b4662aa36a703611ac8575061271190565b46617a6903611ad757505f1990565b505f90565b60405163095ea7b360e01b81526001600160a01b0383811660048301525f602483015284169063095ea7b3906044016020604051808303815f875af1158015611b27573d5f5f3e3d5ffd5b505050506040513d601f19601f82011682018060405250810190611b4b9190612199565b5060405163095ea7b360e01b81526001600160a01b0383811660048301526024820183905284169063095ea7b3906044016020604051808303815f875af1158015611b98573d5f5f3e3d5ffd5b505050506040513d601f19601f82011682018060405250810190611bbc9190612199565b50505050565b5f6105558267ffffffffffffffff166005611c7e565b5f81611bea57611be75f611bc2565b91505b611bf48230611d3b565b5090565b5f82611c0a57611c075f611bc2565b92505b611c148383611d3b565b5090919050565b5f82611c2d57611c2a5f611bc2565b92505b81611c3e57611c3b5f611bc2565b91505b611c4983835f611dc4565b9392505050565b5f82611c6257611c5f5f611bc2565b92505b81611c7357611c705f611bc2565b91505b611c4983835f611ebf565b7f9e7b61f58c47dc699ac88507c4f5bb9f121c03808c5676a8078fe583e464970154604051639cd07acb60e01b81525f917f9e7b61f58c47dc699ac88507c4f5bb9f121c03808c5676a8078fe583e4649700916001600160a01b0390911690639cd07acb90611cf39087908790600401612390565b6020604051808303815f875af1158015611d0f573d5f5f3e3d5ffd5b505050506040513d601f19601f82011682018060405250810190611d339190612334565b949350505050565b5f7f9e7b61f58c47dc699ac88507c4f5bb9f121c03808c5676a8078fe583e46497008054604051635ca4b5b160e11b8152600481018690526001600160a01b03858116602483015292935091169063b9496b62906044015f604051808303815f87803b158015611da9575f5ffd5b505af1158015611dbb573d5f5f3e3d5ffd5b50505050505050565b5f5f8215611dd75750600160f81b611dda565b505f5b7f9e7b61f58c47dc699ac88507c4f5bb9f121c03808c5676a8078fe583e4649701546040516303056db360e31b815260048101879052602481018690527fff00000000000000000000000000000000000000000000000000000000000000831660448201527f9e7b61f58c47dc699ac88507c4f5bb9f121c03808c5676a8078fe583e4649700916001600160a01b03169063182b6d98906064015b6020604051808303815f875af1158015611e91573d5f5f3e3d5ffd5b505050506040513d601f19601f82011682018060405250810190611eb59190612334565b9695505050505050565b5f5f8215611ed25750600160f81b611ed5565b505f5b7f9e7b61f58c47dc699ac88507c4f5bb9f121c03808c5676a8078fe583e46497015460405163022f65e760e31b815260048101879052602481018690527fff00000000000000000000000000000000000000000000000000000000000000831660448201527f9e7b61f58c47dc699ac88507c4f5bb9f121c03808c5676a8078fe583e4649700916001600160a01b03169063117b2f3890606401611e75565b6001600160a01b0381168114611f88575f5ffd5b50565b5f60208284031215611f9b575f5ffd5b8135611c4981611f74565b5f5f5f5f5f60808688031215611fba575f5ffd5b8535611fc581611f74565b94506020860135611fd581611f74565b935060408601359250606086013567ffffffffffffffff811115611ff7575f5ffd5b8601601f81018813612007575f5ffd5b803567ffffffffffffffff81111561201d575f5ffd5b88602082840101111561202e575f5ffd5b959894975092955050506020019190565b5f5f60408385031215612050575f5ffd5b50508035926020909101359150565b5f6020828403121561206f575f5ffd5b5035919050565b805161208181611f74565b919050565b805162ffffff81168114612081575f5ffd5b8051600281900b8114612081575f5ffd5b80516001600160801b0381168114612081575f5ffd5b5f5f5f5f5f5f5f5f5f5f5f5f6101808d8f0312156120db575f5ffd5b8c516bffffffffffffffffffffffff811681146120f6575f5ffd5b9b5061210460208e01612076565b9a5061211260408e01612076565b995061212060608e01612076565b985061212e60808e01612086565b975061213c60a08e01612098565b965061214a60c08e01612098565b955061215860e08e016120a9565b6101008e01516101208f0151919650945092506121786101408e016120a9565b91506121876101608e016120a9565b90509295989b509295989b509295989b565b5f602082840312156121a9575f5ffd5b81518015158114611c49575f5ffd5b81516001600160a01b03168152610160810160208301516121e460208401826001600160a01b03169052565b5060408301516121fb604084018262ffffff169052565b506060830151612210606084018260020b9052565b506080830151612225608084018260020b9052565b5060a083015160a083015260c083015160c083015260e083015160e083015261010083015161010083015261012083015161226c6101208401826001600160a01b03169052565b5061014092830151919092015290565b5f5f5f5f6080858703121561228f575f5ffd5b8451935061229f602086016120a9565b6040860151606090960151949790965092505050565b634e487b7160e01b5f52601160045260245ffd5b8082028115828204841417610555576105556122b5565b5f826122fa57634e487b7160e01b5f52601260045260245ffd5b500490565b5f5f60408385031215612310575f5ffd5b505080516020909101519092909150565b81810381811115610555576105556122b5565b5f60208284031215612344575f5ffd5b5051919050565b80820180821115610555576105556122b5565b5f5f5f60608486031215612370575f5ffd5b612379846120a9565b602085015160409095015190969495509392505050565b82815260408101605483106123b357634e487b7160e01b5f52602160045260245ffd5b826020830152939250505056fea164736f6c634300081b000a",
  "devdoc": {
    "kind": "dev",
    "methods": {},
    "version": 1
  },
  "userdoc": {
    "errors": {
      "ZamaProtocolUnsupported()": [
        {
          "notice": "Returned if the Zama protocol is not supported on the current chain"
        }
      ]
    },
    "kind": "user",
    "methods": {
      "getUsdcBalance(address)": {
        "notice": "Plaintext share balance (USDC-denominated; does not include unrealized fees/IL)."
      },
      "onERC721Received(address,address,uint256,bytes)": {
        "notice": "Required so the vault can receive Uniswap v3 position NFTs."
      }
    },
    "version": 1
  },
  "storageLayout": {
    "storage": [
      {
        "astId": 42887,
        "contract": "contracts/uniswap/NapFiUniswapVault.sol:NapFiUniswapVault",
        "label": "encryptedBalances",
        "offset": 0,
        "slot": "0",
        "type": "t_mapping(t_address,t_userDefinedValueType(euint64)43967)"
      },
      {
        "astId": 42889,
        "contract": "contracts/uniswap/NapFiUniswapVault.sol:NapFiUniswapVault",
        "label": "agentOperator",
        "offset": 0,
        "slot": "1",
        "type": "t_address"
      },
      {
        "astId": 42891,
        "contract": "contracts/uniswap/NapFiUniswapVault.sol:NapFiUniswapVault",
        "label": "totalShares",
        "offset": 0,
        "slot": "2",
        "type": "t_uint256"
      },
      {
        "astId": 42895,
        "contract": "contracts/uniswap/NapFiUniswapVault.sol:NapFiUniswapVault",
        "label": "sharesOf",
        "offset": 0,
        "slot": "3",
        "type": "t_mapping(t_address,t_uint256)"
      },
      {
        "astId": 42925,
        "contract": "contracts/uniswap/NapFiUniswapVault.sol:NapFiUniswapVault",
        "label": "positionTokenId",
        "offset": 0,
        "slot": "4",
        "type": "t_uint256"
      },
      {
        "astId": 42927,
        "contract": "contracts/uniswap/NapFiUniswapVault.sol:NapFiUniswapVault",
        "label": "owner",
        "offset": 0,
        "slot": "5",
        "type": "t_address"
      },
      {
        "astId": 42929,
        "contract": "contracts/uniswap/NapFiUniswapVault.sol:NapFiUniswapVault",
        "label": "_locked",
        "offset": 20,
        "slot": "5",
        "type": "t_bool"
      }
    ],
    "types": {
      "t_address": {
        "encoding": "inplace",
        "label": "address",
        "numberOfBytes": "20"
      },
      "t_bool": {
        "encoding": "inplace",
        "label": "bool",
        "numberOfBytes": "1"
      },
      "t_mapping(t_address,t_uint256)": {
        "encoding": "mapping",
        "key": "t_address",
        "label": "mapping(address => uint256)",
        "numberOfBytes": "32",
        "value": "t_uint256"
      },
      "t_mapping(t_address,t_userDefinedValueType(euint64)43967)": {
        "encoding": "mapping",
        "key": "t_address",
        "label": "mapping(address => euint64)",
        "numberOfBytes": "32",
        "value": "t_userDefinedValueType(euint64)43967"
      },
      "t_uint256": {
        "encoding": "inplace",
        "label": "uint256",
        "numberOfBytes": "32"
      },
      "t_userDefinedValueType(euint64)43967": {
        "encoding": "inplace",
        "label": "euint64",
        "numberOfBytes": "32"
      }
    }
  }
}