{
  "address": "0x1BED91De1ae0D03ba088E34FbA2412102CA5Ab8a",
  "abi": [
    {
      "inputs": [
        {
          "internalType": "address",
          "name": "_usdc",
          "type": "address"
        },
        {
          "internalType": "address",
          "name": "_pool",
          "type": "address"
        },
        {
          "internalType": "address",
          "name": "_aToken",
          "type": "address"
        }
      ],
      "stateMutability": "nonpayable",
      "type": "constructor"
    },
    {
      "anonymous": false,
      "inputs": [
        {
          "indexed": true,
          "internalType": "address",
          "name": "user",
          "type": "address"
        },
        {
          "indexed": false,
          "internalType": "uint256",
          "name": "amount",
          "type": "uint256"
        }
      ],
      "name": "DepositUSDC",
      "type": "event"
    },
    {
      "anonymous": false,
      "inputs": [
        {
          "indexed": true,
          "internalType": "address",
          "name": "user",
          "type": "address"
        },
        {
          "indexed": false,
          "internalType": "uint256",
          "name": "amount",
          "type": "uint256"
        }
      ],
      "name": "WithdrawUSDC",
      "type": "event"
    },
    {
      "inputs": [],
      "name": "aToken",
      "outputs": [
        {
          "internalType": "contract IERC20",
          "name": "",
          "type": "address"
        }
      ],
      "stateMutability": "view",
      "type": "function"
    },
    {
      "inputs": [
        {
          "internalType": "uint256",
          "name": "amount",
          "type": "uint256"
        }
      ],
      "name": "depositUSDC",
      "outputs": [],
      "stateMutability": "nonpayable",
      "type": "function"
    },
    {
      "inputs": [
        {
          "internalType": "address",
          "name": "user",
          "type": "address"
        }
      ],
      "name": "getUsdcBalance",
      "outputs": [
        {
          "internalType": "uint256",
          "name": "",
          "type": "uint256"
        }
      ],
      "stateMutability": "view",
      "type": "function"
    },
    {
      "inputs": [],
      "name": "pool",
      "outputs": [
        {
          "internalType": "contract IAavePool",
          "name": "",
          "type": "address"
        }
      ],
      "stateMutability": "view",
      "type": "function"
    },
    {
      "inputs": [
        {
          "internalType": "address",
          "name": "",
          "type": "address"
        }
      ],
      "name": "sharesOf",
      "outputs": [
        {
          "internalType": "uint256",
          "name": "",
          "type": "uint256"
        }
      ],
      "stateMutability": "view",
      "type": "function"
    },
    {
      "inputs": [],
      "name": "totalAssets",
      "outputs": [
        {
          "internalType": "uint256",
          "name": "",
          "type": "uint256"
        }
      ],
      "stateMutability": "view",
      "type": "function"
    },
    {
      "inputs": [],
      "name": "totalShares",
      "outputs": [
        {
          "internalType": "uint256",
          "name": "",
          "type": "uint256"
        }
      ],
      "stateMutability": "view",
      "type": "function"
    },
    {
      "inputs": [],
      "name": "usdc",
      "outputs": [
        {
          "internalType": "contract IERC20",
          "name": "",
          "type": "address"
        }
      ],
      "stateMutability": "view",
      "type": "function"
    },
    {
      "inputs": [
        {
          "internalType": "uint256",
          "name": "amount",
          "type": "uint256"
        }
      ],
      "name": "withdrawUSDC",
      "outputs": [],
      "stateMutability": "nonpayable",
      "type": "function"
    }
  ],
  "transactionHash": "0x6bb6eaacb0a39124d1bf307ba1b51c40700b05b6dce0b6a6e94d42f24ebc85ec",
  "args": [
    "0x94a9D9AC8a22534E3FaCa9F4e7F2E2cf85d5E4C8",
    "0x6Ae43d3271ff6888e7Fc43Fd7321a503ff738951",
    "0x16dA4541aD1807f4443d92D26044C1147406EB80"
  ],
  "numDeployments": 1,
  "solcInputHash": "7584a0cc025853cbd93d4bd3bf563c23",
  "bytecode": "0x60e060405234801561000f575f5ffd5b50604051610ee0380380610ee083398101604081905261002e916100d6565b6001600160a01b0383161580159061004e57506001600160a01b03821615155b801561006257506001600160a01b03811615155b61009e5760405162461bcd60e51b81526020600482015260096024820152683d32b9379030b2323960b91b604482015260640160405180910390fd5b6001600160a01b0392831660805290821660a0521660c052610116565b80516001600160a01b03811681146100d1575f5ffd5b919050565b5f5f5f606084860312156100e8575f5ffd5b6100f1846100bb565b92506100ff602085016100bb565b915061010d604085016100bb565b90509250925092565b60805160a05160c051610d4661019a5f395f818161014401526101c401525f818160c3015281816105b901528181610a0f01528181610abf0152610bf601525f818161010a0152818161024a01528181610534015281816105e0015281816106b10152818161085101528181610a3d01528181610aee0152610bbb0152610d465ff3fe608060405234801561000f575f5ffd5b506004361061009f575f3560e01c806369b49adc11610072578063db81f99b11610058578063db81f99b14610166578063f5eb42dc1461017b578063f688bcfb1461019a575f5ffd5b806369b49adc1461012c578063a0c1f15e1461013f575f5ffd5b806301e1d114146100a357806316f0115b146100be5780633a98ef39146100fd5780633e413bee14610105575b5f5ffd5b6100ab6101ad565b6040519081526020015b60405180910390f35b6100e57f000000000000000000000000000000000000000000000000000000000000000081565b6040516001600160a01b0390911681526020016100b5565b6100ab5f5481565b6100e57f000000000000000000000000000000000000000000000000000000000000000081565b6100ab61013a366004610c50565b6102ca565b6100e57f000000000000000000000000000000000000000000000000000000000000000081565b610179610174366004610c76565b610318565b005b6100ab610189366004610c50565b60016020525f908152604090205481565b6101796101a8366004610c76565b6107a0565b6040516370a0823160e01b81523060048201525f907f00000000000000000000000000000000000000000000000000000000000000006001600160a01b0316906370a0823190602401602060405180830381865afa158015610211573d5f5f3e3d5ffd5b505050506040513d601f19601f820116820180604052508101906102359190610c8d565b6040516370a0823160e01b81523060048201527f00000000000000000000000000000000000000000000000000000000000000006001600160a01b0316906370a0823190602401602060405180830381865afa158015610297573d5f5f3e3d5ffd5b505050506040513d601f19601f820116820180604052508101906102bb9190610c8d565b6102c59190610cb8565b905090565b5f80548082036102dc57505f92915050565b806102e56101ad565b6001600160a01b0385165f908152600160205260409020546103079190610cd1565b6103119190610ce8565b9392505050565b60025460ff161561035d5760405162461bcd60e51b815260206004820152600a6024820152697265656e7472616e637960b01b60448201526064015b60405180910390fd5b6002805460ff19166001179055806103a05760405162461bcd60e51b8152602060048201526006602482015265185b5bdd5b9d60d21b6044820152606401610354565b5f54806103ef5760405162461bcd60e51b815260206004820152600560248201527f656d7074790000000000000000000000000000000000000000000000000000006044820152606401610354565b335f908152600160205260409020548061044b5760405162461bcd60e51b815260206004820152600960248201527f6e6f2073686172657300000000000000000000000000000000000000000000006044820152606401610354565b5f6104546101ad565b90505f836104628385610cd1565b61046c9190610ce8565b9050808511156104be5760405162461bcd60e51b815260206004820152600760248201527f65786365656473000000000000000000000000000000000000000000000000006044820152606401610354565b5f826001816104cd888a610cd1565b6104d79190610cb8565b6104e19190610d07565b6104eb9190610ce8565b9050838111156104f85750825b6105028185610d07565b335f9081526001602052604090205561051b8186610d07565b5f9081556040516370a0823160e01b81523060048201527f00000000000000000000000000000000000000000000000000000000000000006001600160a01b0316906370a0823190602401602060405180830381865afa158015610581573d5f5f3e3d5ffd5b505050506040513d601f19601f820116820180604052508101906105a59190610c8d565b905086811015610695576001600160a01b037f0000000000000000000000000000000000000000000000000000000000000000166369328dec7f0000000000000000000000000000000000000000000000000000000000000000610609848b610d07565b6040517fffffffff0000000000000000000000000000000000000000000000000000000060e085901b1681526001600160a01b03909216600483015260248201523060448201526064016020604051808303815f875af115801561066f573d5f5f3e3d5ffd5b505050506040513d601f19601f820116820180604052508101906106939190610c8d565b505b60405163a9059cbb60e01b8152336004820152602481018890527f00000000000000000000000000000000000000000000000000000000000000006001600160a01b03169063a9059cbb906044016020604051808303815f875af11580156106ff573d5f5f3e3d5ffd5b505050506040513d601f19601f820116820180604052508101906107239190610d1a565b6107585760405162461bcd60e51b8152600401610354906020808252600490820152633c3332b960e11b604082015260600190565b60405187815233907f23ee1b877cb0081138b4973c5b2eca0133c573ad526550935d83aaade37666ca9060200160405180910390a250506002805460ff191690555050505050565b60025460ff16156107e05760405162461bcd60e51b815260206004820152600a6024820152697265656e7472616e637960b01b6044820152606401610354565b6002805460ff19166001179055806108235760405162461bcd60e51b8152602060048201526006602482015265185b5bdd5b9d60d21b6044820152606401610354565b5f61082c6101ad565b6040516323b872dd60e01b8152336004820152306024820152604481018490529091507f00000000000000000000000000000000000000000000000000000000000000006001600160a01b0316906323b872dd906064016020604051808303815f875af115801561089f573d5f5f3e3d5ffd5b505050506040513d601f19601f820116820180604052508101906108c39190610d1a565b505f5f545f036108d4575081610923565b5f82116109085760405162461bcd60e51b8152602060048201526002602482015261746160f01b6044820152606401610354565b815f54846109169190610cd1565b6109209190610ce8565b90505b5f81116109725760405162461bcd60e51b815260206004820152600660248201527f73686172657300000000000000000000000000000000000000000000000000006044820152606401610354565b805f5f8282546109829190610cb8565b9091555050335f90815260016020526040812080548392906109a5908490610cb8565b909155506109b49050836109f8565b60405183815233907fe7440f6772025dec9be06ba934e6ee5289b73533ee2136ba668f6cb6ea3f56a89060200160405180910390a250506002805460ff1916905550565b60405163095ea7b360e01b81526001600160a01b037f0000000000000000000000000000000000000000000000000000000000000000811660048301525f60248301527f0000000000000000000000000000000000000000000000000000000000000000169063095ea7b3906044016020604051808303815f875af1158015610a83573d5f5f3e3d5ffd5b505050506040513d601f19601f82011682018060405250810190610aa79190610d1a565b5060405163095ea7b360e01b81526001600160a01b037f000000000000000000000000000000000000000000000000000000000000000081166004830152602482018390527f0000000000000000000000000000000000000000000000000000000000000000169063095ea7b3906044016020604051808303815f875af1158015610b34573d5f5f3e3d5ffd5b505050506040513d601f19601f82011682018060405250810190610b589190610d1a565b610ba45760405162461bcd60e51b815260206004820152600760248201527f617070726f7665000000000000000000000000000000000000000000000000006044820152606401610354565b60405163617ba03760e01b81526001600160a01b037f000000000000000000000000000000000000000000000000000000000000000081166004830152602482018390523060448301525f60648301527f0000000000000000000000000000000000000000000000000000000000000000169063617ba037906084015f604051808303815f87803b158015610c37575f5ffd5b505af1158015610c49573d5f5f3e3d5ffd5b5050505050565b5f60208284031215610c60575f5ffd5b81356001600160a01b0381168114610311575f5ffd5b5f60208284031215610c86575f5ffd5b5035919050565b5f60208284031215610c9d575f5ffd5b5051919050565b634e487b7160e01b5f52601160045260245ffd5b80820180821115610ccb57610ccb610ca4565b92915050565b8082028115828204841417610ccb57610ccb610ca4565b5f82610d0257634e487b7160e01b5f52601260045260245ffd5b500490565b81810381811115610ccb57610ccb610ca4565b5f60208284031215610d2a575f5ffd5b81518015158114610311575f5ffdfea164736f6c634300081b000a",
  "devdoc": {
    "kind": "dev",
    "methods": {
      "constructor": {
        "params": {
          "_aToken": "USDC aToken on this chain (Pool.getReserveData(usdc).aTokenAddress)"
        }
      },
      "depositUSDC(uint256)": {
        "details": "Pull USDC, mint shares, supply to Aave."
      }
    },
    "version": 1
  },
  "userdoc": {
    "kind": "user",
    "methods": {
      "getUsdcBalance(address)": {
        "notice": "User's claim on underlying USDC (pro-rata of shares)."
      },
      "totalAssets()": {
        "notice": "Idle USDC in vault + aToken balance (underlying-denominated)."
      },
      "withdrawUSDC(uint256)": {
        "notice": "Withdraw underlying USDC to msg.sender (pulls from Aave if needed)."
      }
    },
    "version": 1
  },
  "storageLayout": {
    "storage": [
      {
        "astId": 42748,
        "contract": "contracts/NapFiUsdcVault.sol:NapFiUsdcVault",
        "label": "totalShares",
        "offset": 0,
        "slot": "0",
        "type": "t_uint256"
      },
      {
        "astId": 42752,
        "contract": "contracts/NapFiUsdcVault.sol:NapFiUsdcVault",
        "label": "sharesOf",
        "offset": 0,
        "slot": "1",
        "type": "t_mapping(t_address,t_uint256)"
      },
      {
        "astId": 42754,
        "contract": "contracts/NapFiUsdcVault.sol:NapFiUsdcVault",
        "label": "_locked",
        "offset": 0,
        "slot": "2",
        "type": "t_bool"
      }
    ],
    "types": {
      "t_address": {
        "encoding": "inplace",
        "label": "address",
        "numberOfBytes": "20"
      },
      "t_bool": {
        "encoding": "inplace",
        "label": "bool",
        "numberOfBytes": "1"
      },
      "t_mapping(t_address,t_uint256)": {
        "encoding": "mapping",
        "key": "t_address",
        "label": "mapping(address => uint256)",
        "numberOfBytes": "32",
        "value": "t_uint256"
      },
      "t_uint256": {
        "encoding": "inplace",
        "label": "uint256",
        "numberOfBytes": "32"
      }
    }
  }
}